{
  "contractName": "SupplyChain",
  "abi": [
    {
      "inputs": [
        {
          "internalType": "string",
          "name": "name_",
          "type": "string"
        },
        {
          "internalType": "string",
          "name": "email_",
          "type": "string"
        }
      ],
      "stateMutability": "nonpayable",
      "type": "constructor"
    },
    {
      "anonymous": false,
      "inputs": [
        {
          "indexed": false,
          "internalType": "string",
          "name": "name",
          "type": "string"
        },
        {
          "indexed": false,
          "internalType": "string",
          "name": "email",
          "type": "string"
        },
        {
          "indexed": false,
          "internalType": "enum Types.UserRole",
          "name": "role",
          "type": "uint8"
        }
      ],
      "name": "LostUser",
      "type": "event"
    },
    {
      "anonymous": false,
      "inputs": [
        {
          "indexed": false,
          "internalType": "string",
          "name": "name",
          "type": "string"
        },
        {
          "indexed": false,
          "internalType": "string",
          "name": "manufacturerName",
          "type": "string"
        },
        {
          "indexed": false,
          "internalType": "string",
          "name": "scientificName",
          "type": "string"
        },
        {
          "indexed": false,
          "internalType": "string",
          "name": "barcodeId",
          "type": "string"
        },
        {
          "indexed": false,
          "internalType": "uint256",
          "name": "manDateEpoch",
          "type": "uint256"
        },
        {
          "indexed": false,
          "internalType": "uint256",
          "name": "expDateEpoch",
          "type": "uint256"
        }
      ],
      "name": "NewProduct",
      "type": "event"
    },
    {
      "anonymous": false,
      "inputs": [
        {
          "indexed": false,
          "internalType": "string",
          "name": "name",
          "type": "string"
        },
        {
          "indexed": false,
          "internalType": "string",
          "name": "email",
          "type": "string"
        },
        {
          "indexed": false,
          "internalType": "enum Types.UserRole",
          "name": "role",
          "type": "uint8"
        }
      ],
      "name": "NewUser",
      "type": "event"
    },
    {
      "anonymous": false,
      "inputs": [
        {
          "indexed": false,
          "internalType": "string",
          "name": "name",
          "type": "string"
        },
        {
          "indexed": false,
          "internalType": "string",
          "name": "manufacturerName",
          "type": "string"
        },
        {
          "indexed": false,
          "internalType": "string",
          "name": "scientificName",
          "type": "string"
        },
        {
          "indexed": false,
          "internalType": "string",
          "name": "barcodeId",
          "type": "string"
        },
        {
          "indexed": false,
          "internalType": "string",
          "name": "buyerName",
          "type": "string"
        },
        {
          "indexed": false,
          "internalType": "string",
          "name": "buyerEmail",
          "type": "string"
        }
      ],
      "name": "ProductOwnershipTransfer",
      "type": "event"
    },
    {
      "inputs": [],
      "name": "getAllProducts",
      "outputs": [
        {
          "components": [
            {
              "internalType": "string",
              "name": "name",
              "type": "string"
            },
            {
              "internalType": "string",
              "name": "manufacturerName",
              "type": "string"
            },
            {
              "internalType": "address",
              "name": "manufacturer",
              "type": "address"
            },
            {
              "internalType": "uint256",
              "name": "manDateEpoch",
              "type": "uint256"
            },
            {
              "internalType": "uint256",
              "name": "expDateEpoch",
              "type": "uint256"
            },
            {
              "internalType": "bool",
              "name": "isInBatch",
              "type": "bool"
            },
            {
              "internalType": "uint256",
              "name": "batchCount",
              "type": "uint256"
            },
            {
              "internalType": "string",
              "name": "barcodeId",
              "type": "string"
            },
            {
              "internalType": "string",
              "name": "productImage",
              "type": "string"
            },
            {
              "internalType": "enum Types.ProductType",
              "name": "productType",
              "type": "uint8"
            },
            {
              "internalType": "string",
              "name": "scientificName",
              "type": "string"
            },
            {
              "internalType": "string",
              "name": "usage",
              "type": "string"
            },
            {
              "internalType": "string[]",
              "name": "composition",
              "type": "string[]"
            },
            {
              "internalType": "string[]",
              "name": "sideEffects",
              "type": "string[]"
            }
          ],
          "internalType": "struct Types.Product[]",
          "name": "",
          "type": "tuple[]"
        }
      ],
      "stateMutability": "view",
      "type": "function",
      "constant": true
    },
    {
      "inputs": [],
      "name": "getMyProducts",
      "outputs": [
        {
          "components": [
            {
              "internalType": "string",
              "name": "name",
              "type": "string"
            },
            {
              "internalType": "string",
              "name": "manufacturerName",
              "type": "string"
            },
            {
              "internalType": "address",
              "name": "manufacturer",
              "type": "address"
            },
            {
              "internalType": "uint256",
              "name": "manDateEpoch",
              "type": "uint256"
            },
            {
              "internalType": "uint256",
              "name": "expDateEpoch",
              "type": "uint256"
            },
            {
              "internalType": "bool",
              "name": "isInBatch",
              "type": "bool"
            },
            {
              "internalType": "uint256",
              "name": "batchCount",
              "type": "uint256"
            },
            {
              "internalType": "string",
              "name": "barcodeId",
              "type": "string"
            },
            {
              "internalType": "string",
              "name": "productImage",
              "type": "string"
            },
            {
              "internalType": "enum Types.ProductType",
              "name": "productType",
              "type": "uint8"
            },
            {
              "internalType": "string",
              "name": "scientificName",
              "type": "string"
            },
            {
              "internalType": "string",
              "name": "usage",
              "type": "string"
            },
            {
              "internalType": "string[]",
              "name": "composition",
              "type": "string[]"
            },
            {
              "internalType": "string[]",
              "name": "sideEffects",
              "type": "string[]"
            }
          ],
          "internalType": "struct Types.Product[]",
          "name": "",
          "type": "tuple[]"
        }
      ],
      "stateMutability": "view",
      "type": "function",
      "constant": true
    },
    {
      "inputs": [
        {
          "internalType": "string",
          "name": "barcodeId_",
          "type": "string"
        }
      ],
      "name": "getSingleProduct",
      "outputs": [
        {
          "components": [
            {
              "internalType": "string",
              "name": "name",
              "type": "string"
            },
            {
              "internalType": "string",
              "name": "manufacturerName",
              "type": "string"
            },
            {
              "internalType": "address",
              "name": "manufacturer",
              "type": "address"
            },
            {
              "internalType": "uint256",
              "name": "manDateEpoch",
              "type": "uint256"
            },
            {
              "internalType": "uint256",
              "name": "expDateEpoch",
              "type": "uint256"
            },
            {
              "internalType": "bool",
              "name": "isInBatch",
              "type": "bool"
            },
            {
              "internalType": "uint256",
              "name": "batchCount",
              "type": "uint256"
            },
            {
              "internalType": "string",
              "name": "barcodeId",
              "type": "string"
            },
            {
              "internalType": "string",
              "name": "productImage",
              "type": "string"
            },
            {
              "internalType": "enum Types.ProductType",
              "name": "productType",
              "type": "uint8"
            },
            {
              "internalType": "string",
              "name": "scientificName",
              "type": "string"
            },
            {
              "internalType": "string",
              "name": "usage",
              "type": "string"
            },
            {
              "internalType": "string[]",
              "name": "composition",
              "type": "string[]"
            },
            {
              "internalType": "string[]",
              "name": "sideEffects",
              "type": "string[]"
            }
          ],
          "internalType": "struct Types.Product",
          "name": "",
          "type": "tuple"
        },
        {
          "components": [
            {
              "components": [
                {
                  "internalType": "address",
                  "name": "id_",
                  "type": "address"
                },
                {
                  "internalType": "uint256",
                  "name": "date",
                  "type": "uint256"
                }
              ],
              "internalType": "struct Types.UserHistory",
              "name": "manufacturer",
              "type": "tuple"
            },
            {
              "components": [
                {
                  "internalType": "address",
                  "name": "id_",
                  "type": "address"
                },
                {
                  "internalType": "uint256",
                  "name": "date",
                  "type": "uint256"
                }
              ],
              "internalType": "struct Types.UserHistory",
              "name": "supplier",
              "type": "tuple"
            },
            {
              "components": [
                {
                  "internalType": "address",
                  "name": "id_",
                  "type": "address"
                },
                {
                  "internalType": "uint256",
                  "name": "date",
                  "type": "uint256"
                }
              ],
              "internalType": "struct Types.UserHistory",
              "name": "vendor",
              "type": "tuple"
            },
            {
              "components": [
                {
                  "internalType": "address",
                  "name": "id_",
                  "type": "address"
                },
                {
                  "internalType": "uint256",
                  "name": "date",
                  "type": "uint256"
                }
              ],
              "internalType": "struct Types.UserHistory[]",
              "name": "customers",
              "type": "tuple[]"
            }
          ],
          "internalType": "struct Types.ProductHistory",
          "name": "",
          "type": "tuple"
        }
      ],
      "stateMutability": "view",
      "type": "function",
      "constant": true
    },
    {
      "inputs": [
        {
          "components": [
            {
              "internalType": "string",
              "name": "name",
              "type": "string"
            },
            {
              "internalType": "string",
              "name": "manufacturerName",
              "type": "string"
            },
            {
              "internalType": "address",
              "name": "manufacturer",
              "type": "address"
            },
            {
              "internalType": "uint256",
              "name": "manDateEpoch",
              "type": "uint256"
            },
            {
              "internalType": "uint256",
              "name": "expDateEpoch",
              "type": "uint256"
            },
            {
              "internalType": "bool",
              "name": "isInBatch",
              "type": "bool"
            },
            {
              "internalType": "uint256",
              "name": "batchCount",
              "type": "uint256"
            },
            {
              "internalType": "string",
              "name": "barcodeId",
              "type": "string"
            },
            {
              "internalType": "string",
              "name": "productImage",
              "type": "string"
            },
            {
              "internalType": "enum Types.ProductType",
              "name": "productType",
              "type": "uint8"
            },
            {
              "internalType": "string",
              "name": "scientificName",
              "type": "string"
            },
            {
              "internalType": "string",
              "name": "usage",
              "type": "string"
            },
            {
              "internalType": "string[]",
              "name": "composition",
              "type": "string[]"
            },
            {
              "internalType": "string[]",
              "name": "sideEffects",
              "type": "string[]"
            }
          ],
          "internalType": "struct Types.Product",
          "name": "product_",
          "type": "tuple"
        },
        {
          "internalType": "uint256",
          "name": "currentTime_",
          "type": "uint256"
        }
      ],
      "name": "addProduct",
      "outputs": [],
      "stateMutability": "nonpayable",
      "type": "function"
    },
    {
      "inputs": [
        {
          "internalType": "address",
          "name": "partyId_",
          "type": "address"
        },
        {
          "internalType": "string",
          "name": "barcodeId_",
          "type": "string"
        },
        {
          "internalType": "uint256",
          "name": "currentTime_",
          "type": "uint256"
        }
      ],
      "name": "sellProduct",
      "outputs": [],
      "stateMutability": "nonpayable",
      "type": "function"
    },
    {
      "inputs": [
        {
          "components": [
            {
              "internalType": "enum Types.UserRole",
              "name": "role",
              "type": "uint8"
            },
            {
              "internalType": "address",
              "name": "id_",
              "type": "address"
            },
            {
              "internalType": "string",
              "name": "name",
              "type": "string"
            },
            {
              "internalType": "string",
              "name": "email",
              "type": "string"
            }
          ],
          "internalType": "struct Types.UserDetails",
          "name": "user_",
          "type": "tuple"
        }
      ],
      "name": "addParty",
      "outputs": [],
      "stateMutability": "nonpayable",
      "type": "function"
    },
    {
      "inputs": [
        {
          "internalType": "address",
          "name": "id_",
          "type": "address"
        }
      ],
      "name": "getUserDetails",
      "outputs": [
        {
          "components": [
            {
              "internalType": "enum Types.UserRole",
              "name": "role",
              "type": "uint8"
            },
            {
              "internalType": "address",
              "name": "id_",
              "type": "address"
            },
            {
              "internalType": "string",
              "name": "name",
              "type": "string"
            },
            {
              "internalType": "string",
              "name": "email",
              "type": "string"
            }
          ],
          "internalType": "struct Types.UserDetails",
          "name": "",
          "type": "tuple"
        }
      ],
      "stateMutability": "view",
      "type": "function",
      "constant": true
    },
    {
      "inputs": [],
      "name": "getMyDetails",
      "outputs": [
        {
          "components": [
            {
              "internalType": "enum Types.UserRole",
              "name": "role",
              "type": "uint8"
            },
            {
              "internalType": "address",
              "name": "id_",
              "type": "address"
            },
            {
              "internalType": "string",
              "name": "name",
              "type": "string"
            },
            {
              "internalType": "string",
              "name": "email",
              "type": "string"
            }
          ],
          "internalType": "struct Types.UserDetails",
          "name": "",
          "type": "tuple"
        }
      ],
      "stateMutability": "view",
      "type": "function",
      "constant": true
    },
    {
      "inputs": [],
      "name": "getMyUsersList",
      "outputs": [
        {
          "components": [
            {
              "internalType": "enum Types.UserRole",
              "name": "role",
              "type": "uint8"
            },
            {
              "internalType": "address",
              "name": "id_",
              "type": "address"
            },
            {
              "internalType": "string",
              "name": "name",
              "type": "string"
            },
            {
              "internalType": "string",
              "name": "email",
              "type": "string"
            }
          ],
          "internalType": "struct Types.UserDetails[]",
          "name": "usersList_",
          "type": "tuple[]"
        }
      ],
      "stateMutability": "view",
      "type": "function",
      "constant": true
    }
  ],
  "bytecode": "0x60806040523480156200001157600080fd5b5060405162004b2638038062004b26833981016040819052620000349162000326565b604080516080810182526000815233602082015290810183905260608101829052620000608162000069565b50505062000588565b60208101516001600160a01b03166200008157600080fd5b80516020820151620000949190620001cb565b15620000e65760405162461bcd60e51b815260206004820152601f60248201527f53616d65207573657220776974682073616d6520726f6c652065786973747300604482015260640160405180910390fd5b6020808201516001600160a01b0316600090815290819052604090208151815483929190829060ff1916600183600381111562000127576200012762000390565b0217905550602082015181546001600160a01b0390911661010002610100600160a81b03199091161781556040820151600182019062000168908262000435565b50606082015160028201906200017f908262000435565b5050506040808201516060830151835192517f71d9dffdac919adfd06ab94bdebcd997efa2ba73e829a41e63107c7f8ae330f693620001c09392916200052f565b60405180910390a150565b60006001600160a01b038216620001e157600080fd5b6001600160a01b038281166000908152602081905260409020546101009004161580159062000252575082600381111562000220576200022062000390565b6001600160a01b03831660009081526020819052604090205460ff16600381111562000250576200025062000390565b145b9392505050565b634e487b7160e01b600052604160045260246000fd5b60005b838110156200028c57818101518382015260200162000272565b50506000910152565b600082601f830112620002a757600080fd5b81516001600160401b0380821115620002c457620002c462000259565b604051601f8301601f19908116603f01168101908282118183101715620002ef57620002ef62000259565b816040528381528660208588010111156200030957600080fd5b6200031c8460208301602089016200026f565b9695505050505050565b600080604083850312156200033a57600080fd5b82516001600160401b03808211156200035257600080fd5b620003608683870162000295565b935060208501519150808211156200037757600080fd5b50620003868582860162000295565b9150509250929050565b634e487b7160e01b600052602160045260246000fd5b600181811c90821680620003bb57607f821691505b602082108103620003dc57634e487b7160e01b600052602260045260246000fd5b50919050565b601f8211156200043057600081815260208120601f850160051c810160208610156200040b5750805b601f850160051c820191505b818110156200042c5782815560010162000417565b5050505b505050565b81516001600160401b0381111562000451576200045162000259565b6200046981620004628454620003a6565b84620003e2565b602080601f831160018114620004a15760008415620004885750858301515b600019600386901b1c1916600185901b1785556200042c565b600085815260208120601f198616915b82811015620004d257888601518255948401946001909101908401620004b1565b5085821015620004f15787850151600019600388901b60f8161c191681555b5050505050600190811b01905550565b600081518084526200051b8160208601602086016200026f565b601f01601f19169290920160200192915050565b60608152600062000544606083018662000501565b828103602084015262000558818662000501565b915050600483106200057a57634e487b7160e01b600052602160045260246000fd5b826040830152949350505050565b61458e80620005986000396000f3fe608060405234801561001057600080fd5b50600436106100935760003560e01c8063431bbb7e11610066578063431bbb7e146100ff5780638248581e14610114578063cc3d967b14610127578063e386cb5f1461013a578063fdca4ca31461014f57600080fd5b806302ee3a5214610098578063067f046a146100b657806306b7dd71146100cb57806316756b0e146100de575b600080fd5b6100a0610157565b6040516100ad9190613a42565b60405180910390f35b6100c96100c4366004613bbf565b61074c565b005b6100c96100d9366004613c16565b610937565b6100f16100ec366004613ccf565b610944565b6040516100ad929190613d0c565b610107610966565b6040516100ad9190613e5e565b6100c9610122366004613f2f565b61099e565b6101076101353660046140ff565b610ad0565b610142610b09565b6040516100ad919061411a565b6100a0610b14565b60606004805480602002602001604051908101604052809291908181526020016000905b8282101561074357838290600052602060002090600e0201604051806101c00160405290816000820180546101af9061416f565b80601f01602080910402602001604051908101604052809291908181526020018280546101db9061416f565b80156102285780601f106101fd57610100808354040283529160200191610228565b820191906000526020600020905b81548152906001019060200180831161020b57829003601f168201915b505050505081526020016001820180546102419061416f565b80601f016020809104026020016040519081016040528092919081815260200182805461026d9061416f565b80156102ba5780601f1061028f576101008083540402835291602001916102ba565b820191906000526020600020905b81548152906001019060200180831161029d57829003601f168201915b505050918352505060028201546001600160a01b031660208201526003820154604082015260048201546060820152600582015460ff1615156080820152600682015460a082015260078201805460c0909201916103179061416f565b80601f01602080910402602001604051908101604052809291908181526020018280546103439061416f565b80156103905780601f1061036557610100808354040283529160200191610390565b820191906000526020600020905b81548152906001019060200180831161037357829003601f168201915b505050505081526020016008820180546103a99061416f565b80601f01602080910402602001604051908101604052809291908181526020018280546103d59061416f565b80156104225780601f106103f757610100808354040283529160200191610422565b820191906000526020600020905b81548152906001019060200180831161040557829003601f168201915b5050509183525050600982015460209091019060ff1660048111156104495761044961387f565b600481111561045a5761045a61387f565b8152602001600a8201805461046e9061416f565b80601f016020809104026020016040519081016040528092919081815260200182805461049a9061416f565b80156104e75780601f106104bc576101008083540402835291602001916104e7565b820191906000526020600020905b8154815290600101906020018083116104ca57829003601f168201915b50505050508152602001600b820180546105009061416f565b80601f016020809104026020016040519081016040528092919081815260200182805461052c9061416f565b80156105795780601f1061054e57610100808354040283529160200191610579565b820191906000526020600020905b81548152906001019060200180831161055c57829003601f168201915b50505050508152602001600c8201805480602002602001604051908101604052809291908181526020016000905b828210156106535783829060005260206000200180546105c69061416f565b80601f01602080910402602001604051908101604052809291908181526020018280546105f29061416f565b801561063f5780601f106106145761010080835404028352916020019161063f565b820191906000526020600020905b81548152906001019060200180831161062257829003601f168201915b5050505050815260200190600101906105a7565b505050508152602001600d8201805480602002602001604051908101604052809291908181526020016000905b8282101561072c57838290600052602060002001805461069f9061416f565b80601f01602080910402602001604051908101604052809291908181526020018280546106cb9061416f565b80156107185780601f106106ed57610100808354040283529160200191610718565b820191906000526020600020905b8154815290600101906020018083116106fb57829003601f168201915b505050505081526020019060010190610680565b50505050815250508152602001906001019061017b565b50505050905090565b61075583610b1e565b6107985760405162461bcd60e51b815260206004820152600f60248201526e14185c9d1e481b9bdd08199bdd5b99608a1b60448201526064015b60405180910390fd5b6001600160a01b0383166000908152602081905260408082208151608081019092528054829060ff1660038111156107d2576107d261387f565b60038111156107e3576107e361387f565b8152815461010090046001600160a01b0316602082015260018201805460409092019161080f9061416f565b80601f016020809104026020016040519081016040528092919081815260200182805461083b9061416f565b80156108885780601f1061085d57610100808354040283529160200191610888565b820191906000526020600020905b81548152906001019060200180831161086b57829003601f168201915b505050505081526020016002820180546108a19061416f565b80601f01602080910402602001604051908101604052809291908181526020018280546108cd9061416f565b801561091a5780601f106108ef5761010080835404028352916020019161091a565b820191906000526020600020905b8154815290600101906020018083116108fd57829003601f168201915b505050505081525050905061093184848385610b63565b50505050565b6109418133611417565b50565b61094c61365b565b6109546136e6565b61095d8361165a565b91509150915091565b61099060408051608081019091528060008152600060208201526060604082018190529081015290565b61099933611d3d565b905090565b336109eb5760405162461bcd60e51b815260206004820152601960248201527f53656e6465722773206164647265737320697320456d70747900000000000000604482015260640161078f565b3360009081526020819052604090205461010090046001600160a01b0316610a555760405162461bcd60e51b815260206004820152601760248201527f557365722773206164647265737320697320456d707479000000000000000000604482015260640161078f565b3360009081526020819052604081205460ff166003811115610a7957610a7961387f565b14610ac25760405162461bcd60e51b815260206004820152601960248201527813db9b1e481b585b9d599858dd1d5c995c8818d85b88185919603a1b604482015260640161078f565b610acc8282611da5565b5050565b610afa60408051608081019091528060008152600060208201526060604082018190529081015290565b610b0382611d3d565b92915050565b6060610999336121de565b6060610999612828565b6000806001600160a01b038316610b355792915050565b6001600160a01b0383811660009081526020819052604090205461010090041615610b035750600192915050565b82610c26600582604051610b7791906141a9565b90815260200160405180910390206007018054610b939061416f565b80601f0160208091040260200160405190810160405280929190818152602001828054610bbf9061416f565b8015610c0c5780601f10610be157610100808354040283529160200191610c0c565b820191906000526020600020905b815481529060010190602001808311610bef57829003601f168201915b505050505060405180602001604052806000815250612f79565b15610c3057600080fd5b6000600585604051610c4291906141a9565b9081526020016040518091039020604051806101c0016040529081600082018054610c6c9061416f565b80601f0160208091040260200160405190810160405280929190818152602001828054610c989061416f565b8015610ce55780601f10610cba57610100808354040283529160200191610ce5565b820191906000526020600020905b815481529060010190602001808311610cc857829003601f168201915b50505050508152602001600182018054610cfe9061416f565b80601f0160208091040260200160405190810160405280929190818152602001828054610d2a9061416f565b8015610d775780601f10610d4c57610100808354040283529160200191610d77565b820191906000526020600020905b815481529060010190602001808311610d5a57829003601f168201915b505050918352505060028201546001600160a01b031660208201526003820154604082015260048201546060820152600582015460ff1615156080820152600682015460a082015260078201805460c090920191610dd49061416f565b80601f0160208091040260200160405190810160405280929190818152602001828054610e009061416f565b8015610e4d5780601f10610e2257610100808354040283529160200191610e4d565b820191906000526020600020905b815481529060010190602001808311610e3057829003601f168201915b50505050508152602001600882018054610e669061416f565b80601f0160208091040260200160405190810160405280929190818152602001828054610e929061416f565b8015610edf5780601f10610eb457610100808354040283529160200191610edf565b820191906000526020600020905b815481529060010190602001808311610ec257829003601f168201915b5050509183525050600982015460209091019060ff166004811115610f0657610f0661387f565b6004811115610f1757610f1761387f565b8152602001600a82018054610f2b9061416f565b80601f0160208091040260200160405190810160405280929190818152602001828054610f579061416f565b8015610fa45780601f10610f7957610100808354040283529160200191610fa4565b820191906000526020600020905b815481529060010190602001808311610f8757829003601f168201915b50505050508152602001600b82018054610fbd9061416f565b80601f0160208091040260200160405190810160405280929190818152602001828054610fe99061416f565b80156110365780601f1061100b57610100808354040283529160200191611036565b820191906000526020600020905b81548152906001019060200180831161101957829003601f168201915b50505050508152602001600c8201805480602002602001604051908101604052809291908181526020016000905b828210156111105783829060005260206000200180546110839061416f565b80601f01602080910402602001604051908101604052809291908181526020018280546110af9061416f565b80156110fc5780601f106110d1576101008083540402835291602001916110fc565b820191906000526020600020905b8154815290600101906020018083116110df57829003601f168201915b505050505081526020019060010190611064565b505050508152602001600d8201805480602002602001604051908101604052809291908181526020016000905b828210156111e957838290600052602060002001805461115c9061416f565b80601f01602080910402602001604051908101604052809291908181526020018280546111889061416f565b80156111d55780601f106111aa576101008083540402835291602001916111d5565b820191906000526020600020905b8154815290600101906020018083116111b857829003601f168201915b50505050508152602001906001019061113d565b50505091525050604080518082019091526020808701516001600160a01b0316825281018590529091506001855160038111156112285761122861387f565b0361127f578060078760405161123e91906141a9565b9081526040516020918190038201902082516002820180546001600160a01b0319166001600160a01b039092169190911790559101516003909101556113a9565b6002855160038111156112945761129461387f565b036112eb57806007876040516112aa91906141a9565b9081526040516020918190038201902082516004820180546001600160a01b0319166001600160a01b039092169190911790559101516005909101556113a9565b6003855160038111156113005761130061387f565b0361136b5760078660405161131591906141a9565b90815260405160209181900382019020600601805460018082018355600092835291839020845160029092020180546001600160a01b0319166001600160a01b03909216919091178155918301519101556113a9565b60405162461bcd60e51b81526020600482015260136024820152722737ba103b30b634b21037b832b930ba34b7b760691b604482015260640161078f565b6113b4338888612fd2565b7fe506af946a27b45d5181c4cb95c3a98fa538282ac2f40f4afce8a3de328e51fd826000015183602001518461014001518560e0015189604001518a60600151604051611406969594939291906141c5565b60405180910390a150505050505050565b6001600160a01b03811661142a57600080fd5b60208201516001600160a01b031661144157600080fd5b600061144c826132b3565b51600381111561145e5761145e61387f565b14801561147d575060018251600381111561147b5761147b61387f565b145b15611532576001600160a01b0381166000908152600160208181526040832080548084018255908452922084516003938402909101805486949193849260ff199092169184908111156114d2576114d261387f565b0217905550602082015181546001600160a01b0390911661010002610100600160a81b0319909116178155604082015160018201906115119082614296565b50606082015160028201906115269082614296565b505050610acc82613483565b600161153d826132b3565b51600381111561154f5761154f61387f565b14801561156e575060028251600381111561156c5761156c61387f565b145b156115c8576001600160a01b038116600090815260026020908152604082208054600181810183559184529190922084516003928302909101805486949193849260ff19909216919084908111156114d2576114d261387f565b60026115d3826132b3565b5160038111156115e5576115e561387f565b14801561160457506003825160038111156116025761160261387f565b145b1561136b576001600160a01b0381166000908152600360208181526040832080546001818101835591855291909320855191830201805486949193849260ff19909216919084908111156114d2576114d261387f565b61166261365b565b61166a6136e6565b60058360405161167a91906141a9565b908152602001604051809103902060078460405161169891906141a9565b908152602001604051809103902081604051806101c00160405290816000820180546116c39061416f565b80601f01602080910402602001604051908101604052809291908181526020018280546116ef9061416f565b801561173c5780601f106117115761010080835404028352916020019161173c565b820191906000526020600020905b81548152906001019060200180831161171f57829003601f168201915b505050505081526020016001820180546117559061416f565b80601f01602080910402602001604051908101604052809291908181526020018280546117819061416f565b80156117ce5780601f106117a3576101008083540402835291602001916117ce565b820191906000526020600020905b8154815290600101906020018083116117b157829003601f168201915b505050918352505060028201546001600160a01b031660208201526003820154604082015260048201546060820152600582015460ff1615156080820152600682015460a082015260078201805460c09092019161182b9061416f565b80601f01602080910402602001604051908101604052809291908181526020018280546118579061416f565b80156118a45780601f10611879576101008083540402835291602001916118a4565b820191906000526020600020905b81548152906001019060200180831161188757829003601f168201915b505050505081526020016008820180546118bd9061416f565b80601f01602080910402602001604051908101604052809291908181526020018280546118e99061416f565b80156119365780601f1061190b57610100808354040283529160200191611936565b820191906000526020600020905b81548152906001019060200180831161191957829003601f168201915b5050509183525050600982015460209091019060ff16600481111561195d5761195d61387f565b600481111561196e5761196e61387f565b8152602001600a820180546119829061416f565b80601f01602080910402602001604051908101604052809291908181526020018280546119ae9061416f565b80156119fb5780601f106119d0576101008083540402835291602001916119fb565b820191906000526020600020905b8154815290600101906020018083116119de57829003601f168201915b50505050508152602001600b82018054611a149061416f565b80601f0160208091040260200160405190810160405280929190818152602001828054611a409061416f565b8015611a8d5780601f10611a6257610100808354040283529160200191611a8d565b820191906000526020600020905b815481529060010190602001808311611a7057829003601f168201915b50505050508152602001600c8201805480602002602001604051908101604052809291908181526020016000905b82821015611b67578382906000526020600020018054611ada9061416f565b80601f0160208091040260200160405190810160405280929190818152602001828054611b069061416f565b8015611b535780601f10611b2857610100808354040283529160200191611b53565b820191906000526020600020905b815481529060010190602001808311611b3657829003601f168201915b505050505081526020019060010190611abb565b505050508152602001600d8201805480602002602001604051908101604052809291908181526020016000905b82821015611c40578382906000526020600020018054611bb39061416f565b80601f0160208091040260200160405190810160405280929190818152602001828054611bdf9061416f565b8015611c2c5780601f10611c0157610100808354040283529160200191611c2c565b820191906000526020600020905b815481529060010190602001808311611c0f57829003601f168201915b505050505081526020019060010190611b94565b505050915250506040805160c08101825283546001600160a01b0390811660808301908152600186015460a0840152825282518084018452600286015482168152600386015460208281019190915280840191909152835180850185526004870154909216825260058601548282015282840191909152600685018054845181840281018401909552808552949650919385936060860193909290919060009084015b82821015611d2b576000848152602090819020604080518082019091526002850290910180546001600160a01b03168252600190810154828401529083529092019101611ce3565b50505091525092969095509350505050565b611d6760408051608081019091528060008152600060208201526060604082018190529081015290565b6001600160a01b038216611d7a57600080fd5b6000611d85836132b3565b602001516001600160a01b031603611d9c57600080fd5b610b03826132b3565b8160e00151611dbd600582604051610b7791906141a9565b611dc657600080fd5b60408301516001600160a01b03163314611e1e5760405162461bcd60e51b815260206004820152601960248201527813db9b1e481b585b9d599858dd1d5c995c8818d85b88185919603a1b604482015260640161078f565b6004805460018101825560009190915283518491600e027f8a35acfbc15ff81a39ae7d344fd709f28e8600b4aa8c65c6b64bfe7fe36bd19b01908190611e649082614296565b5060208201516001820190611e799082614296565b5060408201516002820180546001600160a01b0319166001600160a01b03909216919091179055606082015160038201556080820151600482015560a082015160058201805460ff191691151591909117905560c0820151600682015560e08201516007820190611eea9082614296565b506101008201516008820190611f009082614296565b5061012082015160098201805460ff19166001836004811115611f2557611f2561387f565b0217905550610140820151600a820190611f3f9082614296565b50610160820151600b820190611f559082614296565b506101808201518051611f7291600c84019160209091019061374f565b506101a08201518051611f8f91600d84019160209091019061374f565b5050508260058460e00151604051611fa791906141a9565b90815260405190819003602001902081518190611fc49082614296565b5060208201516001820190611fd99082614296565b5060408201516002820180546001600160a01b0319166001600160a01b03909216919091179055606082015160038201556080820151600482015560a082015160058201805460ff191691151591909117905560c0820151600682015560e0820151600782019061204a9082614296565b5061010082015160088201906120609082614296565b5061012082015160098201805460ff191660018360048111156120855761208561387f565b0217905550610140820151600a82019061209f9082614296565b50610160820151600b8201906120b59082614296565b5061018082015180516120d291600c84019160209091019061374f565b506101a082015180516120ef91600d84019160209091019061374f565b50506040805180820182523381526020810185905260e0860151915190925060079161211a916141a9565b9081526040805160209281900383019020835181546001600160a01b0319166001600160a01b03909116178155928201516001938401553360009081526006835290812060e0870151815494850182559082529190209091019061217e9082614296565b507f6d3f7be874572e7843c7697df05672c142e68bab8cc20a6a88f885ed0a49d900836000015184602001518561014001518660e00151876060015188608001516040516121d196959493929190614356565b60405180910390a1505050565b60606001600160a01b0382166122245760405162461bcd60e51b815260206004820152600b60248201526a496420697320656d70747960a81b604482015260640161078f565b600061222f836132b3565b5160038111156122415761224161387f565b0361242b576001600160a01b038216600090815260016020908152604080832080548251818502810185019093528083529193909284015b8282101561242057838290600052602060002090600302016040518060800160405290816000820160009054906101000a900460ff1660038111156122c0576122c061387f565b60038111156122d1576122d161387f565b8152815461010090046001600160a01b031660208201526001820180546040909201916122fd9061416f565b80601f01602080910402602001604051908101604052809291908181526020018280546123299061416f565b80156123765780601f1061234b57610100808354040283529160200191612376565b820191906000526020600020905b81548152906001019060200180831161235957829003601f168201915b5050505050815260200160028201805461238f9061416f565b80601f01602080910402602001604051908101604052809291908181526020018280546123bb9061416f565b80156124085780601f106123dd57610100808354040283529160200191612408565b820191906000526020600020905b8154815290600101906020018083116123eb57829003601f168201915b50505050508152505081526020019060010190612279565b505050509050919050565b6001612436836132b3565b5160038111156124485761244861387f565b03612627576001600160a01b038216600090815260026020908152604080832080548251818502810185019093528083529193909284015b8282101561242057838290600052602060002090600302016040518060800160405290816000820160009054906101000a900460ff1660038111156124c7576124c761387f565b60038111156124d8576124d861387f565b8152815461010090046001600160a01b031660208201526001820180546040909201916125049061416f565b80601f01602080910402602001604051908101604052809291908181526020018280546125309061416f565b801561257d5780601f106125525761010080835404028352916020019161257d565b820191906000526020600020905b81548152906001019060200180831161256057829003601f168201915b505050505081526020016002820180546125969061416f565b80601f01602080910402602001604051908101604052809291908181526020018280546125c29061416f565b801561260f5780601f106125e45761010080835404028352916020019161260f565b820191906000526020600020905b8154815290600101906020018083116125f257829003601f168201915b50505050508152505081526020019060010190612480565b6002612632836132b3565b5160038111156126445761264461387f565b0361136b576001600160a01b038216600090815260036020908152604080832080548251818502810185019093528083529193909284015b8282101561242057838290600052602060002090600302016040518060800160405290816000820160009054906101000a900460ff1660038111156126c3576126c361387f565b60038111156126d4576126d461387f565b8152815461010090046001600160a01b031660208201526001820180546040909201916127009061416f565b80601f016020809104026020016040519081016040528092919081815260200182805461272c9061416f565b80156127795780601f1061274e57610100808354040283529160200191612779565b820191906000526020600020905b81548152906001019060200180831161275c57829003601f168201915b505050505081526020016002820180546127929061416f565b80601f01602080910402602001604051908101604052809291908181526020018280546127be9061416f565b801561280b5780601f106127e05761010080835404028352916020019161280b565b820191906000526020600020905b8154815290600101906020018083116127ee57829003601f168201915b5050505050815250508152602001906001019061267c565b919050565b336000908152600660209081526040808320805482518185028101850190935280835260609493849084015b828210156129005783829060005260206000200180546128739061416f565b80601f016020809104026020016040519081016040528092919081815260200182805461289f9061416f565b80156128ec5780601f106128c1576101008083540402835291602001916128ec565b820191906000526020600020905b8154815290600101906020018083116128cf57829003601f168201915b505050505081526020019060010190612854565b5050505090506000815167ffffffffffffffff81111561292257612922613abb565b60405190808252806020026020018201604052801561295b57816020015b61294861365b565b8152602001906001900390816129405790505b50905060005b8251811015612f7257600583828151811061297e5761297e6143b9565b602002602001015160405161299391906141a9565b9081526020016040518091039020604051806101c00160405290816000820180546129bd9061416f565b80601f01602080910402602001604051908101604052809291908181526020018280546129e99061416f565b8015612a365780601f10612a0b57610100808354040283529160200191612a36565b820191906000526020600020905b815481529060010190602001808311612a1957829003601f168201915b50505050508152602001600182018054612a4f9061416f565b80601f0160208091040260200160405190810160405280929190818152602001828054612a7b9061416f565b8015612ac85780601f10612a9d57610100808354040283529160200191612ac8565b820191906000526020600020905b815481529060010190602001808311612aab57829003601f168201915b505050918352505060028201546001600160a01b031660208201526003820154604082015260048201546060820152600582015460ff1615156080820152600682015460a082015260078201805460c090920191612b259061416f565b80601f0160208091040260200160405190810160405280929190818152602001828054612b519061416f565b8015612b9e5780601f10612b7357610100808354040283529160200191612b9e565b820191906000526020600020905b815481529060010190602001808311612b8157829003601f168201915b50505050508152602001600882018054612bb79061416f565b80601f0160208091040260200160405190810160405280929190818152602001828054612be39061416f565b8015612c305780601f10612c0557610100808354040283529160200191612c30565b820191906000526020600020905b815481529060010190602001808311612c1357829003601f168201915b5050509183525050600982015460209091019060ff166004811115612c5757612c5761387f565b6004811115612c6857612c6861387f565b8152602001600a82018054612c7c9061416f565b80601f0160208091040260200160405190810160405280929190818152602001828054612ca89061416f565b8015612cf55780601f10612cca57610100808354040283529160200191612cf5565b820191906000526020600020905b815481529060010190602001808311612cd857829003601f168201915b50505050508152602001600b82018054612d0e9061416f565b80601f0160208091040260200160405190810160405280929190818152602001828054612d3a9061416f565b8015612d875780601f10612d5c57610100808354040283529160200191612d87565b820191906000526020600020905b815481529060010190602001808311612d6a57829003601f168201915b50505050508152602001600c8201805480602002602001604051908101604052809291908181526020016000905b82821015612e61578382906000526020600020018054612dd49061416f565b80601f0160208091040260200160405190810160405280929190818152602001828054612e009061416f565b8015612e4d5780601f10612e2257610100808354040283529160200191612e4d565b820191906000526020600020905b815481529060010190602001808311612e3057829003601f168201915b505050505081526020019060010190612db5565b505050508152602001600d8201805480602002602001604051908101604052809291908181526020016000905b82821015612f3a578382906000526020600020018054612ead9061416f565b80601f0160208091040260200160405190810160405280929190818152602001828054612ed99061416f565b8015612f265780601f10612efb57610100808354040283529160200191612f26565b820191906000526020600020905b815481529060010190602001808311612f0957829003601f168201915b505050505081526020019060010190612e8e565b5050505081525050828281518110612f5457612f546143b9565b60200260200101819052508080612f6a906143e5565b915050612961565b5092915050565b600081604051602001612f8c91906141a9565b6040516020818303038152906040528051906020012083604051602001612fb391906141a9565b6040516020818303038152906040528051906020012014905092915050565b6001600160a01b0382166000908152600660209081526040822080546001810182559083529120016130048282614296565b506001600160a01b038316600090815260066020908152604080832080548251818502810185019093528083529192909190849084015b828210156130e757838290600052602060002001805461305a9061416f565b80601f01602080910402602001604051908101604052809291908181526020018280546130869061416f565b80156130d35780601f106130a8576101008083540402835291602001916130d3565b820191906000526020600020905b8154815290600101906020018083116130b657829003601f168201915b50505050508152602001906001019061303b565b5050505090506000815160016130fd91906143fe565b905060005b825181101561314d5761312e838281518110613120576131206143b9565b602002602001015185612f79565b1561313b5780915061314d565b80613145816143e5565b915050613102565b508151811061315e5761315e614411565b815160010361318d576001600160a01b0385166000908152600660205260408120613188916137a5565b6132ac565b6001600160a01b038516600090815260066020526040902082516131b390600190614427565b815481106131c3576131c36143b9565b9060005260206000200160066000876001600160a01b03166001600160a01b031681526020019081526020016000208281548110613203576132036143b9565b906000526020600020019081613219919061443a565b506001600160a01b0385166000908152600660205260409020825161324090600190614427565b81548110613250576132506143b9565b90600052602060002001600061326691906137c3565b6001600160a01b038516600090815260066020526040902080548061328d5761328d61450d565b6001900381819060005260206000200160006132a991906137c3565b90555b5050505050565b6132dd60408051608081019091528060008152600060208201526060604082018190529081015290565b6001600160a01b0382166132f057600080fd5b6001600160a01b038216600090815260208190526040908190208151608081019092528054829060ff16600381111561332b5761332b61387f565b600381111561333c5761333c61387f565b8152815461010090046001600160a01b031660208201526001820180546040909201916133689061416f565b80601f01602080910402602001604051908101604052809291908181526020018280546133949061416f565b80156133e15780601f106133b6576101008083540402835291602001916133e1565b820191906000526020600020905b8154815290600101906020018083116133c457829003601f168201915b505050505081526020016002820180546133fa9061416f565b80601f01602080910402602001604051908101604052809291908181526020018280546134269061416f565b80156134735780601f1061344857610100808354040283529160200191613473565b820191906000526020600020905b81548152906001019060200180831161345657829003601f168201915b5050505050815250509050919050565b60208101516001600160a01b031661349a57600080fd5b6134ac816000015182602001516135d5565b156134f95760405162461bcd60e51b815260206004820152601f60248201527f53616d65207573657220776974682073616d6520726f6c652065786973747300604482015260640161078f565b6020808201516001600160a01b0316600090815290819052604090208151815483929190829060ff191660018360038111156135375761353761387f565b0217905550602082015181546001600160a01b0390911661010002610100600160a81b0319909116178155604082015160018201906135769082614296565b506060820151600282019061358b9082614296565b5050506040808201516060830151835192517f71d9dffdac919adfd06ab94bdebcd997efa2ba73e829a41e63107c7f8ae330f6936135ca939291614523565b60405180910390a150565b60006001600160a01b0382166135ea57600080fd5b6001600160a01b038281166000908152602081905260409020546101009004161580159061365457508260038111156136255761362561387f565b6001600160a01b03831660009081526020819052604090205460ff1660038111156136525761365261387f565b145b9392505050565b604051806101c00160405280606081526020016060815260200160006001600160a01b031681526020016000815260200160008152602001600015158152602001600081526020016060815260200160608152602001600060048111156136c4576136c461387f565b8152602001606081526020016060815260200160608152602001606081525090565b6040805160c0810190915260006080820181815260a083019190915281908152602001613723604080518082019091526000808252602082015290565b8152602001613742604080518082019091526000808252602082015290565b8152602001606081525090565b828054828255906000526020600020908101928215613795579160200282015b8281111561379557825182906137859082614296565b509160200191906001019061376f565b506137a19291506137fd565b5090565b508054600082559060005260206000209081019061094191906137fd565b5080546137cf9061416f565b6000825580601f106137df575050565b601f016020900490600052602060002090810190610941919061381a565b808211156137a157600061381182826137c3565b506001016137fd565b5b808211156137a1576000815560010161381b565b60005b8381101561384a578181015183820152602001613832565b50506000910152565b6000815180845261386b81602086016020860161382f565b601f01601f19169290920160200192915050565b634e487b7160e01b600052602160045260246000fd5b600581106138a5576138a561387f565b9052565b600082825180855260208086019550808260051b84010181860160005b848110156138f457601f198684030189526138e2838351613853565b988401989250908301906001016138c6565b5090979650505050505050565b60006101c0825181855261391782860182613853565b915050602083015184820360208601526139318282613853565b915050604083015161394e60408601826001600160a01b03169052565b50606083015160608501526080830151608085015260a083015161397660a086018215159052565b5060c083015160c085015260e083015184820360e08601526139988282613853565b91505061010080840151858303828701526139b38382613853565b92505050610120808401516139ca82870182613895565b505061014080840151858303828701526139e48382613853565b925050506101608084015185830382870152613a008382613853565b925050506101808084015185830382870152613a1c83826138a9565b925050506101a08084015185830382870152613a3883826138a9565b9695505050505050565b6000602080830181845280855180835260408601915060408160051b870101925083870160005b82811015613a9757603f19888603018452613a85858351613901565b94509285019290850190600101613a69565b5092979650505050505050565b80356001600160a01b038116811461282357600080fd5b634e487b7160e01b600052604160045260246000fd5b6040516080810167ffffffffffffffff81118282101715613af457613af4613abb565b60405290565b6040516101c0810167ffffffffffffffff81118282101715613af457613af4613abb565b604051601f8201601f1916810167ffffffffffffffff81118282101715613b4757613b47613abb565b604052919050565b600082601f830112613b6057600080fd5b813567ffffffffffffffff811115613b7a57613b7a613abb565b613b8d601f8201601f1916602001613b1e565b818152846020838601011115613ba257600080fd5b816020850160208301376000918101602001919091529392505050565b600080600060608486031215613bd457600080fd5b613bdd84613aa4565b9250602084013567ffffffffffffffff811115613bf957600080fd5b613c0586828701613b4f565b925050604084013590509250925092565b600060208284031215613c2857600080fd5b813567ffffffffffffffff80821115613c4057600080fd5b9083019060808286031215613c5457600080fd5b613c5c613ad1565b823560048110613c6b57600080fd5b8152613c7960208401613aa4565b6020820152604083013582811115613c9057600080fd5b613c9c87828601613b4f565b604083015250606083013582811115613cb457600080fd5b613cc087828601613b4f565b60608301525095945050505050565b600060208284031215613ce157600080fd5b813567ffffffffffffffff811115613cf857600080fd5b613d0484828501613b4f565b949350505050565b60006040808352613d1f81840186613901565b60208482038186015260e08201613d4a83885180516001600160a01b03168252602090810151910152565b81870151613d6d8585018280516001600160a01b03168252602090810151910152565b508387015180516001600160a01b031660808501526020015160a0840152606087015160e060c085015280519182905282810193600092610100909101905b80841015613de657613dd282875180516001600160a01b03168252602090810151910152565b948401946001939093019290860190613dac565b509998505050505050505050565b600481106138a5576138a561387f565b613e0f828251613df4565b60018060a01b0360208201511660208301526000604082015160806040850152613e3c6080850182613853565b905060608301518482036060860152613e558282613853565b95945050505050565b6020815260006136546020830184613e04565b8035801515811461282357600080fd5b80356005811061282357600080fd5b600082601f830112613ea157600080fd5b8135602067ffffffffffffffff80831115613ebe57613ebe613abb565b8260051b613ecd838201613b1e565b9384528581018301938381019088861115613ee757600080fd5b84880192505b85831015613f2357823584811115613f055760008081fd5b613f138a87838c0101613b4f565b8352509184019190840190613eed565b98975050505050505050565b60008060408385031215613f4257600080fd5b823567ffffffffffffffff80821115613f5a57600080fd5b908401906101c08287031215613f6f57600080fd5b613f77613afa565b823582811115613f8657600080fd5b613f9288828601613b4f565b825250602083013582811115613fa757600080fd5b613fb388828601613b4f565b602083015250613fc560408401613aa4565b60408201526060830135606082015260808301356080820152613fea60a08401613e71565b60a082015260c083013560c082015260e08301358281111561400b57600080fd5b61401788828601613b4f565b60e083015250610100808401358381111561403157600080fd5b61403d89828701613b4f565b828401525050610120614051818501613e81565b90820152610140838101358381111561406957600080fd5b61407589828701613b4f565b828401525050610160808401358381111561408f57600080fd5b61409b89828701613b4f565b82840152505061018080840135838111156140b557600080fd5b6140c189828701613e90565b8284015250506101a080840135838111156140db57600080fd5b6140e789828701613e90565b91830191909152509660209590950135955050505050565b60006020828403121561411157600080fd5b61365482613aa4565b6000602080830181845280855180835260408601915060408160051b870101925083870160005b82811015613a9757603f1988860301845261415d858351613e04565b94509285019290850190600101614141565b600181811c9082168061418357607f821691505b6020821081036141a357634e487b7160e01b600052602260045260246000fd5b50919050565b600082516141bb81846020870161382f565b9190910192915050565b60c0815260006141d860c0830189613853565b82810360208401526141ea8189613853565b905082810360408401526141fe8188613853565b905082810360608401526142128187613853565b905082810360808401526142268186613853565b905082810360a084015261423a8185613853565b9998505050505050505050565b601f82111561429157600081815260208120601f850160051c8101602086101561426e5750805b601f850160051c820191505b8181101561428d5782815560010161427a565b5050505b505050565b815167ffffffffffffffff8111156142b0576142b0613abb565b6142c4816142be845461416f565b84614247565b602080601f8311600181146142f957600084156142e15750858301515b600019600386901b1c1916600185901b17855561428d565b600085815260208120601f198616915b8281101561432857888601518255948401946001909101908401614309565b50858210156143465787850151600019600388901b60f8161c191681555b5050505050600190811b01905550565b60c08152600061436960c0830189613853565b828103602084015261437b8189613853565b9050828103604084015261438f8188613853565b905082810360608401526143a38187613853565b6080840195909552505060a00152949350505050565b634e487b7160e01b600052603260045260246000fd5b634e487b7160e01b600052601160045260246000fd5b6000600182016143f7576143f76143cf565b5060010190565b80820180821115610b0357610b036143cf565b634e487b7160e01b600052600160045260246000fd5b81810381811115610b0357610b036143cf565b818103614445575050565b61444f825461416f565b67ffffffffffffffff81111561446757614467613abb565b614475816142be845461416f565b6000601f8211600181146144a957600083156144915750848201545b600019600385901b1c1916600184901b1784556132ac565b600085815260209020601f19841690600086815260209020845b838110156144e357828601548255600195860195909101906020016144c3565b50858310156143465793015460001960f8600387901b161c19169092555050600190811b01905550565b634e487b7160e01b600052603160045260246000fd5b6060815260006145366060830186613853565b82810360208401526145488186613853565b915050613d046040830184613df456fea26469706673582212203d55a43d3f201d2b67731781ce1e1e8997da8141b98a123b5a9074ae3dca4b2464736f6c63430008110033",
  "immutableReferences": {},
  "source": "// SPDX-License-Identifier: GPL-3.0\npragma experimental ABIEncoderV2;\npragma solidity >=0.4.25 <0.9.0;\n\nimport \"./Products.sol\";\nimport \"./Users.sol\";\n\n/**\n * @title SupplyChain\n * @author Suresh Konakanchi | GeekyAnts\n * @dev Implements the transparency in the supply chain to\n * understand the actual user & the flow of the products/medicines\n */\ncontract SupplyChain is Users, Products {\n    /**\n     * @dev Create a new SupplyChain with the provided 'manufacturer'\n     * @param name_ Name of the manufacturer\n     * @param email_ Email of the manufacturer\n     */\n    constructor(string memory name_, string memory email_) {\n        Types.UserDetails memory mn_ = Types.UserDetails({\n            role: Types.UserRole.Manufacturer,\n            id_: msg.sender,\n            name: name_,\n            email: email_\n        });\n        add(mn_);\n    }\n\n    /**\n     * @dev To get All the products list.\n     * @return productsList All the products that were added so far\n     */\n    function getAllProducts() public view returns (Types.Product[] memory) {\n        return products;\n    }\n\n    /**\n     * @dev To get all the products linked a particular user\n     * @return productsList All the products that were linked to current logged-in user\n     */\n    function getMyProducts() public view returns (Types.Product[] memory) {\n        return getUserProducts();\n    }\n\n    /**\n     * @dev Get single product\n     * @param barcodeId_ Unique ID of the product\n     * @return product_ Details of the product & it's timeline\n     * @return history_ product lifecycle, who purchased when\n     */\n    function getSingleProduct(string memory barcodeId_)\n        public\n        view\n        returns (Types.Product memory, Types.ProductHistory memory)\n    {\n        return getSpecificProduct(barcodeId_);\n    }\n\n    /**\n     * @dev Adds new product to the products list\n     * @param product_ unique ID of the product\n     * @param currentTime_ Current Date, Time in epoch (To store when it got added)\n     */\n    function addProduct(Types.Product memory product_, uint256 currentTime_)\n        public\n        onlyManufacturer\n    {\n        addAProduct(product_, currentTime_);\n    }\n\n    /**\n     * @dev Transfer the ownership\n     * @param partyId_ Purchase user's account address\n     * @param barcodeId_ unique ID of the product\n     * @param currentTime_ Current Date Time in epoch to keep track of the history\n     */\n    function sellProduct(\n        address partyId_,\n        string memory barcodeId_,\n        uint256 currentTime_\n    ) public {\n        require(isPartyExists(partyId_), \"Party not found\");\n        Types.UserDetails memory party_ = users[partyId_];\n        sell(partyId_, barcodeId_, party_, currentTime_);\n    }\n\n    /**\n     * @dev To add an user to my account, which can be used in future at the time of selling\n     * @param user_ Details of the user that need to be added\n     */\n    function addParty(Types.UserDetails memory user_) public {\n        addparty(user_, msg.sender);\n    }\n\n    /**\n     * @dev To get details of the user\n     * @param id_ User Id for whom the details were needed\n     * @return user_ Details of the current logged-in User\n     */\n    function getUserDetails(address id_)\n        public\n        view\n        returns (Types.UserDetails memory)\n    {\n        return getPartyDetails(id_);\n    }\n\n    /**\n     * @dev To get details of the current logged-in user\n     * @return user_ Details of the current logged-in User\n     */\n    function getMyDetails() public view returns (Types.UserDetails memory) {\n        return getPartyDetails(msg.sender);\n    }\n\n    /**\n     * @dev To get List of users that were added by the current logged-in user\n     * @return usersList_ List of UserDetail objects will be returned (Which are added by same user)\n     */\n    function getMyUsersList()\n        public\n        view\n        returns (Types.UserDetails[] memory usersList_)\n    {\n        return getMyPartyList(msg.sender);\n    }\n}\n",
  "sourcePath": "/home/sudhanshu/Documents/sample-supply-chain-ethereum/blockchain/contracts/SupplyChain.sol",
  "compiler": {
    "name": "solc",
    "version": "0.8.17+commit.8df45f5f.Emscripten.clang"
  },
  "schemaVersion": "3.4.11",
  "updatedAt": "2022-12-03T17:51:19.599Z",
  "networkType": "ethereum",
  "devdoc": {
    "author": "Suresh Konakanchi | GeekyAnts",
    "details": "Implements the transparency in the supply chain to understand the actual user & the flow of the products/medicines",
    "kind": "dev",
    "methods": {
      "addParty((uint8,address,string,string))": {
        "details": "To add an user to my account, which can be used in future at the time of selling",
        "params": {
          "user_": "Details of the user that need to be added"
        }
      },
      "addProduct((string,string,address,uint256,uint256,bool,uint256,string,string,uint8,string,string,string[],string[]),uint256)": {
        "details": "Adds new product to the products list",
        "params": {
          "currentTime_": "Current Date, Time in epoch (To store when it got added)",
          "product_": "unique ID of the product"
        }
      },
      "constructor": {
        "details": "Create a new SupplyChain with the provided 'manufacturer'",
        "params": {
          "email_": "Email of the manufacturer",
          "name_": "Name of the manufacturer"
        }
      },
      "getAllProducts()": {
        "details": "To get All the products list.",
        "returns": {
          "_0": "productsList All the products that were added so far"
        }
      },
      "getMyDetails()": {
        "details": "To get details of the current logged-in user",
        "returns": {
          "_0": "user_ Details of the current logged-in User"
        }
      },
      "getMyProducts()": {
        "details": "To get all the products linked a particular user",
        "returns": {
          "_0": "productsList All the products that were linked to current logged-in user"
        }
      },
      "getMyUsersList()": {
        "details": "To get List of users that were added by the current logged-in user",
        "returns": {
          "usersList_": "List of UserDetail objects will be returned (Which are added by same user)"
        }
      },
      "getSingleProduct(string)": {
        "details": "Get single product",
        "params": {
          "barcodeId_": "Unique ID of the product"
        },
        "returns": {
          "_0": "product_ Details of the product & it's timeline",
          "_1": "history_ product lifecycle, who purchased when"
        }
      },
      "getUserDetails(address)": {
        "details": "To get details of the user",
        "params": {
          "id_": "User Id for whom the details were needed"
        },
        "returns": {
          "_0": "user_ Details of the current logged-in User"
        }
      },
      "sellProduct(address,string,uint256)": {
        "details": "Transfer the ownership",
        "params": {
          "barcodeId_": "unique ID of the product",
          "currentTime_": "Current Date Time in epoch to keep track of the history",
          "partyId_": "Purchase user's account address"
        }
      }
    },
    "title": "SupplyChain",
    "version": 1
  },
  "userdoc": {
    "kind": "user",
    "methods": {},
    "version": 1
  }
}