{
  "contractName": "SupplyChain",
  "abi": [
    {
      "inputs": [
        {
          "internalType": "string",
          "name": "name_",
          "type": "string"
        },
        {
          "internalType": "string",
          "name": "email_",
          "type": "string"
        }
      ],
      "stateMutability": "nonpayable",
      "type": "constructor"
    },
    {
      "anonymous": false,
      "inputs": [
        {
          "indexed": false,
          "internalType": "string",
          "name": "name",
          "type": "string"
        },
        {
          "indexed": false,
          "internalType": "string",
          "name": "email",
          "type": "string"
        },
        {
          "indexed": false,
          "internalType": "enum Types.UserRole",
          "name": "role",
          "type": "uint8"
        }
      ],
      "name": "LostUser",
      "type": "event"
    },
    {
      "anonymous": false,
      "inputs": [
        {
          "indexed": false,
          "internalType": "string",
          "name": "name",
          "type": "string"
        },
        {
          "indexed": false,
          "internalType": "string",
          "name": "manufacturerName",
          "type": "string"
        },
        {
          "indexed": false,
          "internalType": "string",
          "name": "scientificName",
          "type": "string"
        },
        {
          "indexed": false,
          "internalType": "string",
          "name": "barcodeId",
          "type": "string"
        },
        {
          "indexed": false,
          "internalType": "uint256",
          "name": "manDateEpoch",
          "type": "uint256"
        },
        {
          "indexed": false,
          "internalType": "uint256",
          "name": "expDateEpoch",
          "type": "uint256"
        }
      ],
      "name": "NewProduct",
      "type": "event"
    },
    {
      "anonymous": false,
      "inputs": [
        {
          "indexed": false,
          "internalType": "string",
          "name": "name",
          "type": "string"
        },
        {
          "indexed": false,
          "internalType": "string",
          "name": "email",
          "type": "string"
        },
        {
          "indexed": false,
          "internalType": "enum Types.UserRole",
          "name": "role",
          "type": "uint8"
        }
      ],
      "name": "NewUser",
      "type": "event"
    },
    {
      "anonymous": false,
      "inputs": [
        {
          "indexed": false,
          "internalType": "string",
          "name": "name",
          "type": "string"
        },
        {
          "indexed": false,
          "internalType": "string",
          "name": "manufacturerName",
          "type": "string"
        },
        {
          "indexed": false,
          "internalType": "string",
          "name": "scientificName",
          "type": "string"
        },
        {
          "indexed": false,
          "internalType": "string",
          "name": "barcodeId",
          "type": "string"
        },
        {
          "indexed": false,
          "internalType": "string",
          "name": "buyerName",
          "type": "string"
        },
        {
          "indexed": false,
          "internalType": "string",
          "name": "buyerEmail",
          "type": "string"
        }
      ],
      "name": "ProductOwnershipTransfer",
      "type": "event"
    },
    {
      "anonymous": false,
      "inputs": [
        {
          "indexed": false,
          "internalType": "uint256",
          "name": "time",
          "type": "uint256"
        }
      ],
      "name": "daysLeft",
      "type": "event"
    },
    {
      "inputs": [],
      "name": "getAllProducts",
      "outputs": [
        {
          "components": [
            {
              "internalType": "string",
              "name": "name",
              "type": "string"
            },
            {
              "internalType": "string",
              "name": "manufacturerName",
              "type": "string"
            },
            {
              "internalType": "address",
              "name": "manufacturer",
              "type": "address"
            },
            {
              "internalType": "uint256",
              "name": "manDateEpoch",
              "type": "uint256"
            },
            {
              "internalType": "uint256",
              "name": "expDateEpoch",
              "type": "uint256"
            },
            {
              "internalType": "bool",
              "name": "isInBatch",
              "type": "bool"
            },
            {
              "internalType": "uint256",
              "name": "batchCount",
              "type": "uint256"
            },
            {
              "internalType": "string",
              "name": "barcodeId",
              "type": "string"
            },
            {
              "internalType": "string",
              "name": "productImage",
              "type": "string"
            },
            {
              "internalType": "enum Types.ProductType",
              "name": "productType",
              "type": "uint8"
            },
            {
              "internalType": "string",
              "name": "scientificName",
              "type": "string"
            },
            {
              "internalType": "string",
              "name": "usage",
              "type": "string"
            },
            {
              "internalType": "string[]",
              "name": "composition",
              "type": "string[]"
            },
            {
              "internalType": "string[]",
              "name": "sideEffects",
              "type": "string[]"
            }
          ],
          "internalType": "struct Types.Product[]",
          "name": "",
          "type": "tuple[]"
        }
      ],
      "stateMutability": "view",
      "type": "function",
      "constant": true
    },
    {
      "inputs": [],
      "name": "getMyProducts",
      "outputs": [
        {
          "components": [
            {
              "internalType": "string",
              "name": "name",
              "type": "string"
            },
            {
              "internalType": "string",
              "name": "manufacturerName",
              "type": "string"
            },
            {
              "internalType": "address",
              "name": "manufacturer",
              "type": "address"
            },
            {
              "internalType": "uint256",
              "name": "manDateEpoch",
              "type": "uint256"
            },
            {
              "internalType": "uint256",
              "name": "expDateEpoch",
              "type": "uint256"
            },
            {
              "internalType": "bool",
              "name": "isInBatch",
              "type": "bool"
            },
            {
              "internalType": "uint256",
              "name": "batchCount",
              "type": "uint256"
            },
            {
              "internalType": "string",
              "name": "barcodeId",
              "type": "string"
            },
            {
              "internalType": "string",
              "name": "productImage",
              "type": "string"
            },
            {
              "internalType": "enum Types.ProductType",
              "name": "productType",
              "type": "uint8"
            },
            {
              "internalType": "string",
              "name": "scientificName",
              "type": "string"
            },
            {
              "internalType": "string",
              "name": "usage",
              "type": "string"
            },
            {
              "internalType": "string[]",
              "name": "composition",
              "type": "string[]"
            },
            {
              "internalType": "string[]",
              "name": "sideEffects",
              "type": "string[]"
            }
          ],
          "internalType": "struct Types.Product[]",
          "name": "",
          "type": "tuple[]"
        }
      ],
      "stateMutability": "view",
      "type": "function",
      "constant": true
    },
    {
      "inputs": [
        {
          "internalType": "string",
          "name": "barcodeId_",
          "type": "string"
        }
      ],
      "name": "getSingleProduct",
      "outputs": [
        {
          "components": [
            {
              "internalType": "string",
              "name": "name",
              "type": "string"
            },
            {
              "internalType": "string",
              "name": "manufacturerName",
              "type": "string"
            },
            {
              "internalType": "address",
              "name": "manufacturer",
              "type": "address"
            },
            {
              "internalType": "uint256",
              "name": "manDateEpoch",
              "type": "uint256"
            },
            {
              "internalType": "uint256",
              "name": "expDateEpoch",
              "type": "uint256"
            },
            {
              "internalType": "bool",
              "name": "isInBatch",
              "type": "bool"
            },
            {
              "internalType": "uint256",
              "name": "batchCount",
              "type": "uint256"
            },
            {
              "internalType": "string",
              "name": "barcodeId",
              "type": "string"
            },
            {
              "internalType": "string",
              "name": "productImage",
              "type": "string"
            },
            {
              "internalType": "enum Types.ProductType",
              "name": "productType",
              "type": "uint8"
            },
            {
              "internalType": "string",
              "name": "scientificName",
              "type": "string"
            },
            {
              "internalType": "string",
              "name": "usage",
              "type": "string"
            },
            {
              "internalType": "string[]",
              "name": "composition",
              "type": "string[]"
            },
            {
              "internalType": "string[]",
              "name": "sideEffects",
              "type": "string[]"
            }
          ],
          "internalType": "struct Types.Product",
          "name": "",
          "type": "tuple"
        },
        {
          "components": [
            {
              "components": [
                {
                  "internalType": "address",
                  "name": "id_",
                  "type": "address"
                },
                {
                  "internalType": "uint256",
                  "name": "dispdate",
                  "type": "uint256"
                },
                {
                  "internalType": "uint256",
                  "name": "recdate",
                  "type": "uint256"
                }
              ],
              "internalType": "struct Types.UserHistory",
              "name": "manufacturer",
              "type": "tuple"
            },
            {
              "components": [
                {
                  "internalType": "address",
                  "name": "id_",
                  "type": "address"
                },
                {
                  "internalType": "uint256",
                  "name": "dispdate",
                  "type": "uint256"
                },
                {
                  "internalType": "uint256",
                  "name": "recdate",
                  "type": "uint256"
                }
              ],
              "internalType": "struct Types.UserHistory",
              "name": "supplier",
              "type": "tuple"
            },
            {
              "components": [
                {
                  "internalType": "address",
                  "name": "id_",
                  "type": "address"
                },
                {
                  "internalType": "uint256",
                  "name": "dispdate",
                  "type": "uint256"
                },
                {
                  "internalType": "uint256",
                  "name": "recdate",
                  "type": "uint256"
                }
              ],
              "internalType": "struct Types.UserHistory",
              "name": "vendor",
              "type": "tuple"
            },
            {
              "components": [
                {
                  "internalType": "address",
                  "name": "id_",
                  "type": "address"
                },
                {
                  "internalType": "uint256",
                  "name": "dispdate",
                  "type": "uint256"
                },
                {
                  "internalType": "uint256",
                  "name": "recdate",
                  "type": "uint256"
                }
              ],
              "internalType": "struct Types.UserHistory[]",
              "name": "customers",
              "type": "tuple[]"
            }
          ],
          "internalType": "struct Types.ProductHistory",
          "name": "",
          "type": "tuple"
        }
      ],
      "stateMutability": "view",
      "type": "function",
      "constant": true
    },
    {
      "inputs": [
        {
          "components": [
            {
              "internalType": "string",
              "name": "name",
              "type": "string"
            },
            {
              "internalType": "string",
              "name": "manufacturerName",
              "type": "string"
            },
            {
              "internalType": "address",
              "name": "manufacturer",
              "type": "address"
            },
            {
              "internalType": "uint256",
              "name": "manDateEpoch",
              "type": "uint256"
            },
            {
              "internalType": "uint256",
              "name": "expDateEpoch",
              "type": "uint256"
            },
            {
              "internalType": "bool",
              "name": "isInBatch",
              "type": "bool"
            },
            {
              "internalType": "uint256",
              "name": "batchCount",
              "type": "uint256"
            },
            {
              "internalType": "string",
              "name": "barcodeId",
              "type": "string"
            },
            {
              "internalType": "string",
              "name": "productImage",
              "type": "string"
            },
            {
              "internalType": "enum Types.ProductType",
              "name": "productType",
              "type": "uint8"
            },
            {
              "internalType": "string",
              "name": "scientificName",
              "type": "string"
            },
            {
              "internalType": "string",
              "name": "usage",
              "type": "string"
            },
            {
              "internalType": "string[]",
              "name": "composition",
              "type": "string[]"
            },
            {
              "internalType": "string[]",
              "name": "sideEffects",
              "type": "string[]"
            }
          ],
          "internalType": "struct Types.Product",
          "name": "product_",
          "type": "tuple"
        },
        {
          "internalType": "uint256",
          "name": "currentTime_",
          "type": "uint256"
        }
      ],
      "name": "addProduct",
      "outputs": [],
      "stateMutability": "nonpayable",
      "type": "function"
    },
    {
      "inputs": [
        {
          "internalType": "address",
          "name": "partyId_",
          "type": "address"
        },
        {
          "internalType": "string",
          "name": "barcodeId_",
          "type": "string"
        },
        {
          "internalType": "uint256",
          "name": "currentTime_",
          "type": "uint256"
        }
      ],
      "name": "sellProduct",
      "outputs": [],
      "stateMutability": "nonpayable",
      "type": "function"
    },
    {
      "inputs": [
        {
          "components": [
            {
              "internalType": "enum Types.UserRole",
              "name": "role",
              "type": "uint8"
            },
            {
              "internalType": "address",
              "name": "id_",
              "type": "address"
            },
            {
              "internalType": "string",
              "name": "name",
              "type": "string"
            },
            {
              "internalType": "string",
              "name": "email",
              "type": "string"
            }
          ],
          "internalType": "struct Types.UserDetails",
          "name": "user_",
          "type": "tuple"
        }
      ],
      "name": "addParty",
      "outputs": [],
      "stateMutability": "nonpayable",
      "type": "function"
    },
    {
      "inputs": [
        {
          "internalType": "string",
          "name": "barcodeId_",
          "type": "string"
        },
        {
          "internalType": "uint256",
          "name": "currentTime_",
          "type": "uint256"
        }
      ],
      "name": "checkDeliv",
      "outputs": [],
      "stateMutability": "nonpayable",
      "type": "function"
    },
    {
      "inputs": [
        {
          "internalType": "string",
          "name": "barcodeId_",
          "type": "string"
        },
        {
          "internalType": "uint256",
          "name": "currentTime_",
          "type": "uint256"
        }
      ],
      "name": "rec",
      "outputs": [],
      "stateMutability": "nonpayable",
      "type": "function"
    },
    {
      "inputs": [
        {
          "internalType": "address",
          "name": "id_",
          "type": "address"
        }
      ],
      "name": "getUserDetails",
      "outputs": [
        {
          "components": [
            {
              "internalType": "enum Types.UserRole",
              "name": "role",
              "type": "uint8"
            },
            {
              "internalType": "address",
              "name": "id_",
              "type": "address"
            },
            {
              "internalType": "string",
              "name": "name",
              "type": "string"
            },
            {
              "internalType": "string",
              "name": "email",
              "type": "string"
            }
          ],
          "internalType": "struct Types.UserDetails",
          "name": "",
          "type": "tuple"
        }
      ],
      "stateMutability": "view",
      "type": "function",
      "constant": true
    },
    {
      "inputs": [],
      "name": "getMyDetails",
      "outputs": [
        {
          "components": [
            {
              "internalType": "enum Types.UserRole",
              "name": "role",
              "type": "uint8"
            },
            {
              "internalType": "address",
              "name": "id_",
              "type": "address"
            },
            {
              "internalType": "string",
              "name": "name",
              "type": "string"
            },
            {
              "internalType": "string",
              "name": "email",
              "type": "string"
            }
          ],
          "internalType": "struct Types.UserDetails",
          "name": "",
          "type": "tuple"
        }
      ],
      "stateMutability": "view",
      "type": "function",
      "constant": true
    },
    {
      "inputs": [],
      "name": "getMyUsersList",
      "outputs": [
        {
          "components": [
            {
              "internalType": "enum Types.UserRole",
              "name": "role",
              "type": "uint8"
            },
            {
              "internalType": "address",
              "name": "id_",
              "type": "address"
            },
            {
              "internalType": "string",
              "name": "name",
              "type": "string"
            },
            {
              "internalType": "string",
              "name": "email",
              "type": "string"
            }
          ],
          "internalType": "struct Types.UserDetails[]",
          "name": "usersList_",
          "type": "tuple[]"
        }
      ],
      "stateMutability": "view",
      "type": "function",
      "constant": true
    }
  ],
  "bytecode": "0x60806040523480156200001157600080fd5b5060405162004fd838038062004fd8833981016040819052620000349162000326565b604080516080810182526000815233602082015290810183905260608101829052620000608162000069565b50505062000588565b60208101516001600160a01b03166200008157600080fd5b80516020820151620000949190620001cb565b15620000e65760405162461bcd60e51b815260206004820152601f60248201527f53616d65207573657220776974682073616d6520726f6c652065786973747300604482015260640160405180910390fd5b6020808201516001600160a01b0316600090815290819052604090208151815483929190829060ff1916600183600381111562000127576200012762000390565b0217905550602082015181546001600160a01b0390911661010002610100600160a81b03199091161781556040820151600182019062000168908262000435565b50606082015160028201906200017f908262000435565b5050506040808201516060830151835192517f71d9dffdac919adfd06ab94bdebcd997efa2ba73e829a41e63107c7f8ae330f693620001c09392916200052f565b60405180910390a150565b60006001600160a01b038216620001e157600080fd5b6001600160a01b038281166000908152602081905260409020546101009004161580159062000252575082600381111562000220576200022062000390565b6001600160a01b03831660009081526020819052604090205460ff16600381111562000250576200025062000390565b145b9392505050565b634e487b7160e01b600052604160045260246000fd5b60005b838110156200028c57818101518382015260200162000272565b50506000910152565b600082601f830112620002a757600080fd5b81516001600160401b0380821115620002c457620002c462000259565b604051601f8301601f19908116603f01168101908282118183101715620002ef57620002ef62000259565b816040528381528660208588010111156200030957600080fd5b6200031c8460208301602089016200026f565b9695505050505050565b600080604083850312156200033a57600080fd5b82516001600160401b03808211156200035257600080fd5b620003608683870162000295565b935060208501519150808211156200037757600080fd5b50620003868582860162000295565b9150509250929050565b634e487b7160e01b600052602160045260246000fd5b600181811c90821680620003bb57607f821691505b602082108103620003dc57634e487b7160e01b600052602260045260246000fd5b50919050565b601f8211156200043057600081815260208120601f850160051c810160208610156200040b5750805b601f850160051c820191505b818110156200042c5782815560010162000417565b5050505b505050565b81516001600160401b0381111562000451576200045162000259565b6200046981620004628454620003a6565b84620003e2565b602080601f831160018114620004a15760008415620004885750858301515b600019600386901b1c1916600185901b1785556200042c565b600085815260208120601f198616915b82811015620004d257888601518255948401946001909101908401620004b1565b5085821015620004f15787850151600019600388901b60f8161c191681555b5050505050600190811b01905550565b600081518084526200051b8160208601602086016200026f565b601f01601f19169290920160200192915050565b60608152600062000544606083018662000501565b828103602084015262000558818662000501565b915050600483106200057a57634e487b7160e01b600052602160045260246000fd5b826040830152949350505050565b614a4080620005986000396000f3fe608060405234801561001057600080fd5b50600436106100a95760003560e01c8063431bbb7e11610071578063431bbb7e1461012857806349cddbe81461013d5780638248581e14610150578063cc3d967b14610163578063e386cb5f14610176578063fdca4ca31461018b57600080fd5b806302ee3a52146100ae578063067f046a146100cc57806306b7dd71146100e157806316756b0e146100f457806316d9188314610115575b600080fd5b6100b6610193565b6040516100c39190613ed6565b60405180910390f35b6100df6100da36600461404f565b610788565b005b6100df6100ef3660046140a5565b610973565b61010761010236600461415d565b610980565b6040516100c39291906141bb565b6100df610123366004614267565b6109a2565b6101306109b9565b6040516100c39190614315565b6100df61014b366004614267565b6109f1565b6100df61015e3660046143e5565b610a04565b6101306101713660046145b4565b610b36565b61017e610b6f565b6040516100c391906145cf565b6100b6610b7a565b60606004805480602002602001604051908101604052809291908181526020016000905b8282101561077f57838290600052602060002090600e0201604051806101c00160405290816000820180546101eb90614624565b80601f016020809104026020016040519081016040528092919081815260200182805461021790614624565b80156102645780601f1061023957610100808354040283529160200191610264565b820191906000526020600020905b81548152906001019060200180831161024757829003601f168201915b5050505050815260200160018201805461027d90614624565b80601f01602080910402602001604051908101604052809291908181526020018280546102a990614624565b80156102f65780601f106102cb576101008083540402835291602001916102f6565b820191906000526020600020905b8154815290600101906020018083116102d957829003601f168201915b505050918352505060028201546001600160a01b031660208201526003820154604082015260048201546060820152600582015460ff1615156080820152600682015460a082015260078201805460c09092019161035390614624565b80601f016020809104026020016040519081016040528092919081815260200182805461037f90614624565b80156103cc5780601f106103a1576101008083540402835291602001916103cc565b820191906000526020600020905b8154815290600101906020018083116103af57829003601f168201915b505050505081526020016008820180546103e590614624565b80601f016020809104026020016040519081016040528092919081815260200182805461041190614624565b801561045e5780601f106104335761010080835404028352916020019161045e565b820191906000526020600020905b81548152906001019060200180831161044157829003601f168201915b5050509183525050600982015460209091019060ff16600481111561048557610485613d13565b600481111561049657610496613d13565b8152602001600a820180546104aa90614624565b80601f01602080910402602001604051908101604052809291908181526020018280546104d690614624565b80156105235780601f106104f857610100808354040283529160200191610523565b820191906000526020600020905b81548152906001019060200180831161050657829003601f168201915b50505050508152602001600b8201805461053c90614624565b80601f016020809104026020016040519081016040528092919081815260200182805461056890614624565b80156105b55780601f1061058a576101008083540402835291602001916105b5565b820191906000526020600020905b81548152906001019060200180831161059857829003601f168201915b50505050508152602001600c8201805480602002602001604051908101604052809291908181526020016000905b8282101561068f57838290600052602060002001805461060290614624565b80601f016020809104026020016040519081016040528092919081815260200182805461062e90614624565b801561067b5780601f106106505761010080835404028352916020019161067b565b820191906000526020600020905b81548152906001019060200180831161065e57829003601f168201915b5050505050815260200190600101906105e3565b505050508152602001600d8201805480602002602001604051908101604052809291908181526020016000905b828210156107685783829060005260206000200180546106db90614624565b80601f016020809104026020016040519081016040528092919081815260200182805461070790614624565b80156107545780601f1061072957610100808354040283529160200191610754565b820191906000526020600020905b81548152906001019060200180831161073757829003601f168201915b5050505050815260200190600101906106bc565b5050505081525050815260200190600101906101b7565b50505050905090565b61079183610b84565b6107d45760405162461bcd60e51b815260206004820152600f60248201526e14185c9d1e481b9bdd08199bdd5b99608a1b60448201526064015b60405180910390fd5b6001600160a01b0383166000908152602081905260408082208151608081019092528054829060ff16600381111561080e5761080e613d13565b600381111561081f5761081f613d13565b8152815461010090046001600160a01b0316602082015260018201805460409092019161084b90614624565b80601f016020809104026020016040519081016040528092919081815260200182805461087790614624565b80156108c45780601f10610899576101008083540402835291602001916108c4565b820191906000526020600020905b8154815290600101906020018083116108a757829003601f168201915b505050505081526020016002820180546108dd90614624565b80601f016020809104026020016040519081016040528092919081815260200182805461090990614624565b80156109565780601f1061092b57610100808354040283529160200191610956565b820191906000526020600020905b81548152906001019060200180831161093957829003601f168201915b505050505081525050905061096d84848385610bc9565b50505050565b61097d8133611509565b50565b610988613af4565b610990613b7f565b6109998361178a565b91509150915091565b6109b582826109b033611e93565b611efb565b5050565b6109e360408051608081019091528060008152600060208201526060604082018190529081015290565b6109ec33611e93565b905090565b6109b582826109ff33611e93565b612054565b33610a515760405162461bcd60e51b815260206004820152601960248201527f53656e6465722773206164647265737320697320456d7074790000000000000060448201526064016107cb565b3360009081526020819052604090205461010090046001600160a01b0316610abb5760405162461bcd60e51b815260206004820152601760248201527f557365722773206164647265737320697320456d70747900000000000000000060448201526064016107cb565b3360009081526020819052604081205460ff166003811115610adf57610adf613d13565b14610b2c5760405162461bcd60e51b815260206004820152601960248201527f4f6e6c79206d616e7566616374757265722063616e206164640000000000000060448201526064016107cb565b6109b582826121fb565b610b6060408051608081019091528060008152600060208201526060604082018190529081015290565b610b6982611e93565b92915050565b60606109ec33612678565b60606109ec612cc2565b6000806001600160a01b038316610b9b5792915050565b6001600160a01b0383811660009081526020819052604090205461010090041615610b695750600192915050565b82610c8c600582604051610bdd919061465e565b90815260200160405180910390206007018054610bf990614624565b80601f0160208091040260200160405190810160405280929190818152602001828054610c2590614624565b8015610c725780601f10610c4757610100808354040283529160200191610c72565b820191906000526020600020905b815481529060010190602001808311610c5557829003601f168201915b505050505060405180602001604052806000815250613412565b15610c9657600080fd5b6000600585604051610ca8919061465e565b9081526020016040518091039020604051806101c0016040529081600082018054610cd290614624565b80601f0160208091040260200160405190810160405280929190818152602001828054610cfe90614624565b8015610d4b5780601f10610d2057610100808354040283529160200191610d4b565b820191906000526020600020905b815481529060010190602001808311610d2e57829003601f168201915b50505050508152602001600182018054610d6490614624565b80601f0160208091040260200160405190810160405280929190818152602001828054610d9090614624565b8015610ddd5780601f10610db257610100808354040283529160200191610ddd565b820191906000526020600020905b815481529060010190602001808311610dc057829003601f168201915b505050918352505060028201546001600160a01b031660208201526003820154604082015260048201546060820152600582015460ff1615156080820152600682015460a082015260078201805460c090920191610e3a90614624565b80601f0160208091040260200160405190810160405280929190818152602001828054610e6690614624565b8015610eb35780601f10610e8857610100808354040283529160200191610eb3565b820191906000526020600020905b815481529060010190602001808311610e9657829003601f168201915b50505050508152602001600882018054610ecc90614624565b80601f0160208091040260200160405190810160405280929190818152602001828054610ef890614624565b8015610f455780601f10610f1a57610100808354040283529160200191610f45565b820191906000526020600020905b815481529060010190602001808311610f2857829003601f168201915b5050509183525050600982015460209091019060ff166004811115610f6c57610f6c613d13565b6004811115610f7d57610f7d613d13565b8152602001600a82018054610f9190614624565b80601f0160208091040260200160405190810160405280929190818152602001828054610fbd90614624565b801561100a5780601f10610fdf5761010080835404028352916020019161100a565b820191906000526020600020905b815481529060010190602001808311610fed57829003601f168201915b50505050508152602001600b8201805461102390614624565b80601f016020809104026020016040519081016040528092919081815260200182805461104f90614624565b801561109c5780601f106110715761010080835404028352916020019161109c565b820191906000526020600020905b81548152906001019060200180831161107f57829003601f168201915b50505050508152602001600c8201805480602002602001604051908101604052809291908181526020016000905b828210156111765783829060005260206000200180546110e990614624565b80601f016020809104026020016040519081016040528092919081815260200182805461111590614624565b80156111625780601f1061113757610100808354040283529160200191611162565b820191906000526020600020905b81548152906001019060200180831161114557829003601f168201915b5050505050815260200190600101906110ca565b505050508152602001600d8201805480602002602001604051908101604052809291908181526020016000905b8282101561124f5783829060005260206000200180546111c290614624565b80601f01602080910402602001604051908101604052809291908181526020018280546111ee90614624565b801561123b5780601f106112105761010080835404028352916020019161123b565b820191906000526020600020905b81548152906001019060200180831161121e57829003601f168201915b5050505050815260200190600101906111a3565b5050505081525050905082816080015111156112bf576112843373c929b634150947a653fbdd36cab4b10f00effbbf8761346b565b60405162461bcd60e51b815260206004820152601060248201526f50726f6475637420657870697265642160801b60448201526064016107cb565b604080516060810182526020808701516001600160a01b0316825281018590526000918101919091526001855160038111156112fd576112fd613d13565b036113605780600787604051611313919061465e565b908152604080516020928190038301902083516003820180546001600160a01b0319166001600160a01b03909216919091179055918301516004830155919091015160059091015561149b565b60028551600381111561137557611375613d13565b036113d8578060078760405161138b919061465e565b908152604080516020928190038301902083516006820180546001600160a01b0319166001600160a01b03909216919091179055918301516007830155919091015160089091015561149b565b6003855160038111156113ed576113ed613d13565b0361146357600786604051611402919061465e565b9081526040805160209281900383019020600901805460018082018355600092835291849020855160039092020180546001600160a01b0319166001600160a01b03909216919091178155928401519083015582015160029091015561149b565b60405162461bcd60e51b815260206004820152600d60248201526c496e76616c69646520726f6c6560981b60448201526064016107cb565b6114a633888861346b565b7fe506af946a27b45d5181c4cb95c3a98fa538282ac2f40f4afce8a3de328e51fd826000015183602001518461014001518560e0015189604001518a606001516040516114f89695949392919061467a565b60405180910390a150505050505050565b6001600160a01b03811661151c57600080fd5b60208201516001600160a01b031661153357600080fd5b600061153e8261374c565b51600381111561155057611550613d13565b14801561156f575060018251600381111561156d5761156d613d13565b145b15611624576001600160a01b0381166000908152600160208181526040832080548084018255908452922084516003938402909101805486949193849260ff199092169184908111156115c4576115c4613d13565b0217905550602082015181546001600160a01b0390911661010002610100600160a81b031990911617815560408201516001820190611603908261474a565b5060608201516002820190611618908261474a565b5050506109b58261391c565b600161162f8261374c565b51600381111561164157611641613d13565b148015611660575060028251600381111561165e5761165e613d13565b145b156116ba576001600160a01b038116600090815260026020908152604082208054600181810183559184529190922084516003928302909101805486949193849260ff19909216919084908111156115c4576115c4613d13565b60026116c58261374c565b5160038111156116d7576116d7613d13565b1480156116f657506003825160038111156116f4576116f4613d13565b145b1561174c576001600160a01b0381166000908152600360208181526040832080546001818101835591855291909320855191830201805486949193849260ff19909216919084908111156115c4576115c4613d13565b60405162461bcd60e51b81526020600482015260136024820152722737ba103b30b634b21037b832b930ba34b7b760691b60448201526064016107cb565b611792613af4565b61179a613b7f565b6005836040516117aa919061465e565b90815260200160405180910390206007846040516117c8919061465e565b908152602001604051809103902081604051806101c00160405290816000820180546117f390614624565b80601f016020809104026020016040519081016040528092919081815260200182805461181f90614624565b801561186c5780601f106118415761010080835404028352916020019161186c565b820191906000526020600020905b81548152906001019060200180831161184f57829003601f168201915b5050505050815260200160018201805461188590614624565b80601f01602080910402602001604051908101604052809291908181526020018280546118b190614624565b80156118fe5780601f106118d3576101008083540402835291602001916118fe565b820191906000526020600020905b8154815290600101906020018083116118e157829003601f168201915b505050918352505060028201546001600160a01b031660208201526003820154604082015260048201546060820152600582015460ff1615156080820152600682015460a082015260078201805460c09092019161195b90614624565b80601f016020809104026020016040519081016040528092919081815260200182805461198790614624565b80156119d45780601f106119a9576101008083540402835291602001916119d4565b820191906000526020600020905b8154815290600101906020018083116119b757829003601f168201915b505050505081526020016008820180546119ed90614624565b80601f0160208091040260200160405190810160405280929190818152602001828054611a1990614624565b8015611a665780601f10611a3b57610100808354040283529160200191611a66565b820191906000526020600020905b815481529060010190602001808311611a4957829003601f168201915b5050509183525050600982015460209091019060ff166004811115611a8d57611a8d613d13565b6004811115611a9e57611a9e613d13565b8152602001600a82018054611ab290614624565b80601f0160208091040260200160405190810160405280929190818152602001828054611ade90614624565b8015611b2b5780601f10611b0057610100808354040283529160200191611b2b565b820191906000526020600020905b815481529060010190602001808311611b0e57829003601f168201915b50505050508152602001600b82018054611b4490614624565b80601f0160208091040260200160405190810160405280929190818152602001828054611b7090614624565b8015611bbd5780601f10611b9257610100808354040283529160200191611bbd565b820191906000526020600020905b815481529060010190602001808311611ba057829003601f168201915b50505050508152602001600c8201805480602002602001604051908101604052809291908181526020016000905b82821015611c97578382906000526020600020018054611c0a90614624565b80601f0160208091040260200160405190810160405280929190818152602001828054611c3690614624565b8015611c835780601f10611c5857610100808354040283529160200191611c83565b820191906000526020600020905b815481529060010190602001808311611c6657829003601f168201915b505050505081526020019060010190611beb565b505050508152602001600d8201805480602002602001604051908101604052809291908181526020016000905b82821015611d70578382906000526020600020018054611ce390614624565b80601f0160208091040260200160405190810160405280929190818152602001828054611d0f90614624565b8015611d5c5780601f10611d3157610100808354040283529160200191611d5c565b820191906000526020600020905b815481529060010190602001808311611d3f57829003601f168201915b505050505081526020019060010190611cc4565b505050915250506040805160e08101825283546001600160a01b0390811660808301908152600186015460a0840152600286015460c0840152825282516060818101855260038701548316825260048701546020838101919091526005880154838701528085019290925284518082018652600688015490931683526007870154838301526008870154838601528385019290925260098601805485518184028101840190965280865295975092948694928601939160009084015b82821015611e81576000848152602090819020604080516060810182526003860290920180546001600160a01b0316835260018082015484860152600290910154918301919091529083529092019101611e2c565b50505091525092969095509350505050565b611ebd60408051608081019091528060008152600060208201526060604082018190529081015290565b6001600160a01b038216611ed057600080fd5b6000611edb8361374c565b602001516001600160a01b031603611ef257600080fd5b610b698261374c565b600181516003811115611f1057611f10613d13565b148015611f3d5750600783604051611f28919061465e565b90815260405190819003602001902060050154155b8015611f7957506319bfcc00600784604051611f59919061465e565b90815260405190819003602001902060040154611f76908461481f565b11155b15611fa75781600784604051611f8f919061465e565b90815260405190819003602001902060050155505050565b600281516003811115611fbc57611fbc613d13565b148015611fe95750600783604051611fd4919061465e565b90815260405190819003602001902060080154155b801561202557506319bfcc00600784604051612005919061465e565b90815260405190819003602001902060070154612022908461481f565b11155b1561204f578160078460405161203b919061465e565b908152604051908190036020019020600801555b505050565b60018151600381111561206957612069613d13565b1480156120965750600783604051612081919061465e565b90815260405190819003602001902060050154155b80156120d157506319bfcc006007846040516120b2919061465e565b908152604051908190036020019020600401546120cf908461481f565b115b156120f55761204f337389d811672a22bf893eb1b2d27a393eb354de04d48561346b565b60028151600381111561210a5761210a613d13565b1480156121375750600783604051612122919061465e565b90815260405190819003602001902060080154155b801561217257506319bfcc00600784604051612153919061465e565b90815260405190819003602001902060070154612170908461481f565b115b156121965761204f337389d811672a22bf893eb1b2d27a393eb354de04d48561346b565b7f3f229b931680f8ec13d02d986c9789be705ea803765b1745f1d96685a90699296007846040516121c7919061465e565b908152604051908190036020019020600701546121e4908461481f565b6040519081526020015b60405180910390a1505050565b8160e00151612213600582604051610bdd919061465e565b61221c57600080fd5b60408301516001600160a01b031633146122785760405162461bcd60e51b815260206004820152601c60248201527f596f7520617265206e6f7420746865206d616e7566616374757265720000000060448201526064016107cb565b81836080015111156122a7576112843373c929b634150947a653fbdd36cab4b10f00effbbf8560e0015161346b565b6004805460018101825560009190915283518491600e027f8a35acfbc15ff81a39ae7d344fd709f28e8600b4aa8c65c6b64bfe7fe36bd19b019081906122ed908261474a565b5060208201516001820190612302908261474a565b5060408201516002820180546001600160a01b0319166001600160a01b03909216919091179055606082015160038201556080820151600482015560a082015160058201805460ff191691151591909117905560c0820151600682015560e08201516007820190612373908261474a565b506101008201516008820190612389908261474a565b5061012082015160098201805460ff191660018360048111156123ae576123ae613d13565b0217905550610140820151600a8201906123c8908261474a565b50610160820151600b8201906123de908261474a565b5061018082015180516123fb91600c840191602090910190613bb9565b506101a0820151805161241891600d840191602090910190613bb9565b5050508260058460e00151604051612430919061465e565b9081526040519081900360200190208151819061244d908261474a565b5060208201516001820190612462908261474a565b5060408201516002820180546001600160a01b0319166001600160a01b03909216919091179055606082015160038201556080820151600482015560a082015160058201805460ff191691151591909117905560c0820151600682015560e082015160078201906124d3908261474a565b5061010082015160088201906124e9908261474a565b5061012082015160098201805460ff1916600183600481111561250e5761250e613d13565b0217905550610140820151600a820190612528908261474a565b50610160820151600b82019061253e908261474a565b50610180820151805161255b91600c840191602090910190613bb9565b506101a0820151805161257891600d840191602090910190613bb9565b509050506040518060600160405280336001600160a01b031681526020018381526020018381525060078460e001516040516125b4919061465e565b9081526040805160209281900383019020835181546001600160a01b0319166001600160a01b0390911617815583830151600180830191909155938201516002909101553360009081526006835290812060e08701518154948501825590825291902090910190612625908261474a565b507f6d3f7be874572e7843c7697df05672c142e68bab8cc20a6a88f885ed0a49d900836000015184602001518561014001518660e00151876060015188608001516040516121ee96959493929190614832565b60606001600160a01b0382166126be5760405162461bcd60e51b815260206004820152600b60248201526a496420697320656d70747960a81b60448201526064016107cb565b60006126c98361374c565b5160038111156126db576126db613d13565b036128c5576001600160a01b038216600090815260016020908152604080832080548251818502810185019093528083529193909284015b828210156128ba57838290600052602060002090600302016040518060800160405290816000820160009054906101000a900460ff16600381111561275a5761275a613d13565b600381111561276b5761276b613d13565b8152815461010090046001600160a01b0316602082015260018201805460409092019161279790614624565b80601f01602080910402602001604051908101604052809291908181526020018280546127c390614624565b80156128105780601f106127e557610100808354040283529160200191612810565b820191906000526020600020905b8154815290600101906020018083116127f357829003601f168201915b5050505050815260200160028201805461282990614624565b80601f016020809104026020016040519081016040528092919081815260200182805461285590614624565b80156128a25780601f10612877576101008083540402835291602001916128a2565b820191906000526020600020905b81548152906001019060200180831161288557829003601f168201915b50505050508152505081526020019060010190612713565b505050509050919050565b60016128d08361374c565b5160038111156128e2576128e2613d13565b03612ac1576001600160a01b038216600090815260026020908152604080832080548251818502810185019093528083529193909284015b828210156128ba57838290600052602060002090600302016040518060800160405290816000820160009054906101000a900460ff16600381111561296157612961613d13565b600381111561297257612972613d13565b8152815461010090046001600160a01b0316602082015260018201805460409092019161299e90614624565b80601f01602080910402602001604051908101604052809291908181526020018280546129ca90614624565b8015612a175780601f106129ec57610100808354040283529160200191612a17565b820191906000526020600020905b8154815290600101906020018083116129fa57829003601f168201915b50505050508152602001600282018054612a3090614624565b80601f0160208091040260200160405190810160405280929190818152602001828054612a5c90614624565b8015612aa95780601f10612a7e57610100808354040283529160200191612aa9565b820191906000526020600020905b815481529060010190602001808311612a8c57829003601f168201915b5050505050815250508152602001906001019061291a565b6002612acc8361374c565b516003811115612ade57612ade613d13565b0361174c576001600160a01b038216600090815260036020908152604080832080548251818502810185019093528083529193909284015b828210156128ba57838290600052602060002090600302016040518060800160405290816000820160009054906101000a900460ff166003811115612b5d57612b5d613d13565b6003811115612b6e57612b6e613d13565b8152815461010090046001600160a01b03166020820152600182018054604090920191612b9a90614624565b80601f0160208091040260200160405190810160405280929190818152602001828054612bc690614624565b8015612c135780601f10612be857610100808354040283529160200191612c13565b820191906000526020600020905b815481529060010190602001808311612bf657829003601f168201915b50505050508152602001600282018054612c2c90614624565b80601f0160208091040260200160405190810160405280929190818152602001828054612c5890614624565b8015612ca55780601f10612c7a57610100808354040283529160200191612ca5565b820191906000526020600020905b815481529060010190602001808311612c8857829003601f168201915b50505050508152505081526020019060010190612b16565b919050565b336000908152600660209081526040808320805482518185028101850190935280835260609493849084015b82821015612d9a578382906000526020600020018054612d0d90614624565b80601f0160208091040260200160405190810160405280929190818152602001828054612d3990614624565b8015612d865780601f10612d5b57610100808354040283529160200191612d86565b820191906000526020600020905b815481529060010190602001808311612d6957829003601f168201915b505050505081526020019060010190612cee565b505050509050600081516001600160401b03811115612dbb57612dbb613f4f565b604051908082528060200260200182016040528015612df457816020015b612de1613af4565b815260200190600190039081612dd95790505b50905060005b825181101561340b576005838281518110612e1757612e17614895565b6020026020010151604051612e2c919061465e565b9081526020016040518091039020604051806101c0016040529081600082018054612e5690614624565b80601f0160208091040260200160405190810160405280929190818152602001828054612e8290614624565b8015612ecf5780601f10612ea457610100808354040283529160200191612ecf565b820191906000526020600020905b815481529060010190602001808311612eb257829003601f168201915b50505050508152602001600182018054612ee890614624565b80601f0160208091040260200160405190810160405280929190818152602001828054612f1490614624565b8015612f615780601f10612f3657610100808354040283529160200191612f61565b820191906000526020600020905b815481529060010190602001808311612f4457829003601f168201915b505050918352505060028201546001600160a01b031660208201526003820154604082015260048201546060820152600582015460ff1615156080820152600682015460a082015260078201805460c090920191612fbe90614624565b80601f0160208091040260200160405190810160405280929190818152602001828054612fea90614624565b80156130375780601f1061300c57610100808354040283529160200191613037565b820191906000526020600020905b81548152906001019060200180831161301a57829003601f168201915b5050505050815260200160088201805461305090614624565b80601f016020809104026020016040519081016040528092919081815260200182805461307c90614624565b80156130c95780601f1061309e576101008083540402835291602001916130c9565b820191906000526020600020905b8154815290600101906020018083116130ac57829003601f168201915b5050509183525050600982015460209091019060ff1660048111156130f0576130f0613d13565b600481111561310157613101613d13565b8152602001600a8201805461311590614624565b80601f016020809104026020016040519081016040528092919081815260200182805461314190614624565b801561318e5780601f106131635761010080835404028352916020019161318e565b820191906000526020600020905b81548152906001019060200180831161317157829003601f168201915b50505050508152602001600b820180546131a790614624565b80601f01602080910402602001604051908101604052809291908181526020018280546131d390614624565b80156132205780601f106131f557610100808354040283529160200191613220565b820191906000526020600020905b81548152906001019060200180831161320357829003601f168201915b50505050508152602001600c8201805480602002602001604051908101604052809291908181526020016000905b828210156132fa57838290600052602060002001805461326d90614624565b80601f016020809104026020016040519081016040528092919081815260200182805461329990614624565b80156132e65780601f106132bb576101008083540402835291602001916132e6565b820191906000526020600020905b8154815290600101906020018083116132c957829003601f168201915b50505050508152602001906001019061324e565b505050508152602001600d8201805480602002602001604051908101604052809291908181526020016000905b828210156133d357838290600052602060002001805461334690614624565b80601f016020809104026020016040519081016040528092919081815260200182805461337290614624565b80156133bf5780601f10613394576101008083540402835291602001916133bf565b820191906000526020600020905b8154815290600101906020018083116133a257829003601f168201915b505050505081526020019060010190613327565b50505050815250508282815181106133ed576133ed614895565b60200260200101819052508080613403906148ab565b915050612dfa565b5092915050565b600081604051602001613425919061465e565b604051602081830303815290604052805190602001208360405160200161344c919061465e565b6040516020818303038152906040528051906020012014905092915050565b6001600160a01b03821660009081526006602090815260408220805460018101825590835291200161349d828261474a565b506001600160a01b038316600090815260066020908152604080832080548251818502810185019093528083529192909190849084015b828210156135805783829060005260206000200180546134f390614624565b80601f016020809104026020016040519081016040528092919081815260200182805461351f90614624565b801561356c5780601f106135415761010080835404028352916020019161356c565b820191906000526020600020905b81548152906001019060200180831161354f57829003601f168201915b5050505050815260200190600101906134d4565b50505050905060008151600161359691906148c4565b905060005b82518110156135e6576135c78382815181106135b9576135b9614895565b602002602001015185613412565b156135d4578091506135e6565b806135de816148ab565b91505061359b565b50815181106135f7576135f76148d7565b8151600103613626576001600160a01b038516600090815260066020526040812061362191613c0f565b613745565b6001600160a01b0385166000908152600660205260409020825161364c9060019061481f565b8154811061365c5761365c614895565b9060005260206000200160066000876001600160a01b03166001600160a01b03168152602001908152602001600020828154811061369c5761369c614895565b9060005260206000200190816136b291906148ed565b506001600160a01b038516600090815260066020526040902082516136d99060019061481f565b815481106136e9576136e9614895565b9060005260206000200160006136ff9190613c2d565b6001600160a01b0385166000908152600660205260409020805480613726576137266149bf565b6001900381819060005260206000200160006137429190613c2d565b90555b5050505050565b61377660408051608081019091528060008152600060208201526060604082018190529081015290565b6001600160a01b03821661378957600080fd5b6001600160a01b038216600090815260208190526040908190208151608081019092528054829060ff1660038111156137c4576137c4613d13565b60038111156137d5576137d5613d13565b8152815461010090046001600160a01b0316602082015260018201805460409092019161380190614624565b80601f016020809104026020016040519081016040528092919081815260200182805461382d90614624565b801561387a5780601f1061384f5761010080835404028352916020019161387a565b820191906000526020600020905b81548152906001019060200180831161385d57829003601f168201915b5050505050815260200160028201805461389390614624565b80601f01602080910402602001604051908101604052809291908181526020018280546138bf90614624565b801561390c5780601f106138e15761010080835404028352916020019161390c565b820191906000526020600020905b8154815290600101906020018083116138ef57829003601f168201915b5050505050815250509050919050565b60208101516001600160a01b031661393357600080fd5b61394581600001518260200151613a6e565b156139925760405162461bcd60e51b815260206004820152601f60248201527f53616d65207573657220776974682073616d6520726f6c65206578697374730060448201526064016107cb565b6020808201516001600160a01b0316600090815290819052604090208151815483929190829060ff191660018360038111156139d0576139d0613d13565b0217905550602082015181546001600160a01b0390911661010002610100600160a81b031990911617815560408201516001820190613a0f908261474a565b5060608201516002820190613a24908261474a565b5050506040808201516060830151835192517f71d9dffdac919adfd06ab94bdebcd997efa2ba73e829a41e63107c7f8ae330f693613a639392916149d5565b60405180910390a150565b60006001600160a01b038216613a8357600080fd5b6001600160a01b0382811660009081526020819052604090205461010090041615801590613aed5750826003811115613abe57613abe613d13565b6001600160a01b03831660009081526020819052604090205460ff166003811115613aeb57613aeb613d13565b145b9392505050565b604051806101c00160405280606081526020016060815260200160006001600160a01b03168152602001600081526020016000815260200160001515815260200160008152602001606081526020016060815260200160006004811115613b5d57613b5d613d13565b8152602001606081526020016060815260200160608152602001606081525090565b6040518060800160405280613b92613c67565b8152602001613b9f613c67565b8152602001613bac613c67565b8152602001606081525090565b828054828255906000526020600020908101928215613bff579160200282015b82811115613bff5782518290613bef908261474a565b5091602001919060010190613bd9565b50613c0b929150613c91565b5090565b508054600082559060005260206000209081019061097d9190613c91565b508054613c3990614624565b6000825580601f10613c49575050565b601f01602090049060005260206000209081019061097d9190613cae565b604051806060016040528060006001600160a01b0316815260200160008152602001600081525090565b80821115613c0b576000613ca58282613c2d565b50600101613c91565b5b80821115613c0b5760008155600101613caf565b60005b83811015613cde578181015183820152602001613cc6565b50506000910152565b60008151808452613cff816020860160208601613cc3565b601f01601f19169290920160200192915050565b634e487b7160e01b600052602160045260246000fd5b60058110613d3957613d39613d13565b9052565b600082825180855260208086019550808260051b84010181860160005b84811015613d8857601f19868403018952613d76838351613ce7565b98840198925090830190600101613d5a565b5090979650505050505050565b60006101c08251818552613dab82860182613ce7565b91505060208301518482036020860152613dc58282613ce7565b9150506040830151613de260408601826001600160a01b03169052565b50606083015160608501526080830151608085015260a0830151613e0a60a086018215159052565b5060c083015160c085015260e083015184820360e0860152613e2c8282613ce7565b9150506101008084015185830382870152613e478382613ce7565b9250505061012080840151613e5e82870182613d29565b50506101408084015185830382870152613e788382613ce7565b925050506101608084015185830382870152613e948382613ce7565b925050506101808084015185830382870152613eb08382613d3d565b925050506101a08084015185830382870152613ecc8382613d3d565b9695505050505050565b6000602080830181845280855180835260408601915060408160051b870101925083870160005b82811015613f2b57603f19888603018452613f19858351613d95565b94509285019290850190600101613efd565b5092979650505050505050565b80356001600160a01b0381168114612cbd57600080fd5b634e487b7160e01b600052604160045260246000fd5b604051608081016001600160401b0381118282101715613f8757613f87613f4f565b60405290565b6040516101c081016001600160401b0381118282101715613f8757613f87613f4f565b604051601f8201601f191681016001600160401b0381118282101715613fd857613fd8613f4f565b604052919050565b600082601f830112613ff157600080fd5b81356001600160401b0381111561400a5761400a613f4f565b61401d601f8201601f1916602001613fb0565b81815284602083860101111561403257600080fd5b816020850160208301376000918101602001919091529392505050565b60008060006060848603121561406457600080fd5b61406d84613f38565b925060208401356001600160401b0381111561408857600080fd5b61409486828701613fe0565b925050604084013590509250925092565b6000602082840312156140b757600080fd5b81356001600160401b03808211156140ce57600080fd5b90830190608082860312156140e257600080fd5b6140ea613f65565b8235600481106140f957600080fd5b815261410760208401613f38565b602082015260408301358281111561411e57600080fd5b61412a87828601613fe0565b60408301525060608301358281111561414257600080fd5b61414e87828601613fe0565b60608301525095945050505050565b60006020828403121561416f57600080fd5b81356001600160401b0381111561418557600080fd5b61419184828501613fe0565b949350505050565b80516001600160a01b0316825260208082015190830152604090810151910152565b6040815260006141ce6040830185613d95565b6020838203818501526101408083016141e8848851614199565b8287015160606141fa81870183614199565b6040890151915061420e60c0870183614199565b888101516101208701949094528351928390528484019561016001936000939092505b8084101561425857614244858851614199565b958501959381019360019390930192614231565b50929998505050505050505050565b6000806040838503121561427a57600080fd5b82356001600160401b0381111561429057600080fd5b61429c85828601613fe0565b95602094909401359450505050565b60048110613d3957613d39613d13565b6142c68282516142ab565b60018060a01b03602082015116602083015260006040820151608060408501526142f36080850182613ce7565b90506060830151848203606086015261430c8282613ce7565b95945050505050565b602081526000613aed60208301846142bb565b80358015158114612cbd57600080fd5b803560058110612cbd57600080fd5b600082601f83011261435857600080fd5b813560206001600160401b038083111561437457614374613f4f565b8260051b614383838201613fb0565b938452858101830193838101908886111561439d57600080fd5b84880192505b858310156143d9578235848111156143bb5760008081fd5b6143c98a87838c0101613fe0565b83525091840191908401906143a3565b98975050505050505050565b600080604083850312156143f857600080fd5b82356001600160401b038082111561440f57600080fd5b908401906101c0828703121561442457600080fd5b61442c613f8d565b82358281111561443b57600080fd5b61444788828601613fe0565b82525060208301358281111561445c57600080fd5b61446888828601613fe0565b60208301525061447a60408401613f38565b6040820152606083013560608201526080830135608082015261449f60a08401614328565b60a082015260c083013560c082015260e0830135828111156144c057600080fd5b6144cc88828601613fe0565b60e08301525061010080840135838111156144e657600080fd5b6144f289828701613fe0565b828401525050610120614506818501614338565b90820152610140838101358381111561451e57600080fd5b61452a89828701613fe0565b828401525050610160808401358381111561454457600080fd5b61455089828701613fe0565b828401525050610180808401358381111561456a57600080fd5b61457689828701614347565b8284015250506101a0808401358381111561459057600080fd5b61459c89828701614347565b91830191909152509660209590950135955050505050565b6000602082840312156145c657600080fd5b613aed82613f38565b6000602080830181845280855180835260408601915060408160051b870101925083870160005b82811015613f2b57603f198886030184526146128583516142bb565b945092850192908501906001016145f6565b600181811c9082168061463857607f821691505b60208210810361465857634e487b7160e01b600052602260045260246000fd5b50919050565b60008251614670818460208701613cc3565b9190910192915050565b60c08152600061468d60c0830189613ce7565b828103602084015261469f8189613ce7565b905082810360408401526146b38188613ce7565b905082810360608401526146c78187613ce7565b905082810360808401526146db8186613ce7565b905082810360a08401526146ef8185613ce7565b9998505050505050505050565b601f82111561204f57600081815260208120601f850160051c810160208610156147235750805b601f850160051c820191505b818110156147425782815560010161472f565b505050505050565b81516001600160401b0381111561476357614763613f4f565b614777816147718454614624565b846146fc565b602080601f8311600181146147ac57600084156147945750858301515b600019600386901b1c1916600185901b178555614742565b600085815260208120601f198616915b828110156147db578886015182559484019460019091019084016147bc565b50858210156147f95787850151600019600388901b60f8161c191681555b5050505050600190811b01905550565b634e487b7160e01b600052601160045260246000fd5b81810381811115610b6957610b69614809565b60c08152600061484560c0830189613ce7565b82810360208401526148578189613ce7565b9050828103604084015261486b8188613ce7565b9050828103606084015261487f8187613ce7565b6080840195909552505060a00152949350505050565b634e487b7160e01b600052603260045260246000fd5b6000600182016148bd576148bd614809565b5060010190565b80820180821115610b6957610b69614809565b634e487b7160e01b600052600160045260246000fd5b8181036148f8575050565b6149028254614624565b6001600160401b0381111561491957614919613f4f565b614927816147718454614624565b6000601f82116001811461495b57600083156149435750848201545b600019600385901b1c1916600184901b178455613745565b600085815260209020601f19841690600086815260209020845b838110156149955782860154825560019586019590910190602001614975565b50858310156147f95793015460001960f8600387901b161c19169092555050600190811b01905550565b634e487b7160e01b600052603160045260246000fd5b6060815260006149e86060830186613ce7565b82810360208401526149fa8186613ce7565b91505061419160408301846142ab56fea2646970667358221220971fe0109945e49ccea5532c7e740b532741557be3c201338a87125ffe2bdc3064736f6c63430008110033",
  "immutableReferences": {},
  "source": "// SPDX-License-Identifier: GPL-3.0\npragma experimental ABIEncoderV2;\npragma solidity >=0.4.25 <0.9.0;\n\nimport \"./Products.sol\";\nimport \"./Users.sol\";\n\n\ncontract SupplyChain is Users, Products {\n    // on the deployment of a contract the manufacturer is created by itself\n    constructor(string memory name_, string memory email_) {\n        Types.UserDetails memory mn_ = Types.UserDetails({\n            role: Types.UserRole.Manufacturer,\n            id_: msg.sender,\n            name: name_,\n            email: email_\n        });\n        add(mn_);\n    }\n\n    // get all the products that exist in the inventory\n    function getAllProducts() public view returns (Types.Product[] memory) {\n        return products;\n    }\n\n    // to get only the products linked to my account\n    function getMyProducts() public view returns (Types.Product[] memory) {\n        return getUserProducts();\n    }\n\n   // get a specific product\n    function getSingleProduct(string memory barcodeId_)\n        public\n        view\n        returns (Types.Product memory, Types.ProductHistory memory)\n    {\n        return getSpecificProduct(barcodeId_);\n    }\n\n    // only manufacturer can add the product\n    function addProduct(Types.Product memory product_, uint256 currentTime_)\n        public\n        onlyManufacturer\n    {\n        addAProduct(product_, currentTime_);\n    }\n\n    // the logged in user can sell the product\n    function sellProduct(\n        address partyId_,\n        string memory barcodeId_,\n        uint256 currentTime_\n    ) public {\n        require(isPartyExists(partyId_), \"Party not found\");\n        Types.UserDetails memory party_ = users[partyId_];\n        sell(partyId_, barcodeId_, party_, currentTime_);\n    }\n\n    // to add a user under the reign of the logged in user\n    function addParty(Types.UserDetails memory user_) public {\n        addparty(user_, msg.sender);\n    }\n    \n    function checkDeliv(string memory barcodeId_, uint256 currentTime_) public {\n        checkdelivery(barcodeId_,currentTime_,getPartyDetails(msg.sender));\n    }\n\n    function rec(string memory barcodeId_, uint256 currentTime_)public{\n        recieve(barcodeId_,currentTime_,getPartyDetails(msg.sender));\n    }\n    // get a specific user detail\n    function getUserDetails(address id_)\n        public\n        view\n        returns (Types.UserDetails memory)\n    {\n        return getPartyDetails(id_);\n    }\n\n    // to get the detail of the logged in user\n    function getMyDetails() public view returns (Types.UserDetails memory) {\n        return getPartyDetails(msg.sender);\n    }\n\n    // to get all the user under the logged in user reign\n    function getMyUsersList()\n        public\n        view\n        returns (Types.UserDetails[] memory usersList_)\n    {\n        return getMyPartyList(msg.sender);\n    }\n}",
  "sourcePath": "C:\\Users\\Shreya Narayan\\ab_hoga_ethIndia\\SupplyChainCovid\\contracts\\SupplyChain.sol",
  "compiler": {
    "name": "solc",
    "version": "0.8.17+commit.8df45f5f.Emscripten.clang"
  },
  "schemaVersion": "3.4.11",
  "updatedAt": "2022-12-01T19:06:17.370Z",
  "networkType": "ethereum",
  "devdoc": {
    "kind": "dev",
    "methods": {},
    "version": 1
  },
  "userdoc": {
    "kind": "user",
    "methods": {},
    "version": 1
  }
}